{
	"Task.sol": {
		"TodoList": {
			"abi": [
				{
					"inputs": [
						{
							"internalType": "string",
							"name": "_description",
							"type": "string"
						},
						{
							"internalType": "uint256",
							"name": "_priority",
							"type": "uint256"
						}
					],
					"name": "addTask",
					"outputs": [],
					"stateMutability": "nonpayable",
					"type": "function"
				},
				{
					"inputs": [
						{
							"internalType": "uint256",
							"name": "_index",
							"type": "uint256"
						},
						{
							"internalType": "string",
							"name": "_newDescription",
							"type": "string"
						}
					],
					"name": "editTask",
					"outputs": [],
					"stateMutability": "nonpayable",
					"type": "function"
				},
				{
					"inputs": [],
					"name": "getTasks",
					"outputs": [
						{
							"components": [
								{
									"internalType": "string",
									"name": "description",
									"type": "string"
								},
								{
									"internalType": "bool",
									"name": "TaskStatus",
									"type": "bool"
								},
								{
									"internalType": "uint256",
									"name": "priority",
									"type": "uint256"
								}
							],
							"internalType": "struct TodoList.Task[]",
							"name": "",
							"type": "tuple[]"
						}
					],
					"stateMutability": "view",
					"type": "function"
				},
				{
					"inputs": [
						{
							"internalType": "uint256",
							"name": "_index",
							"type": "uint256"
						}
					],
					"name": "markTaskDone",
					"outputs": [],
					"stateMutability": "nonpayable",
					"type": "function"
				},
				{
					"inputs": [
						{
							"internalType": "uint256",
							"name": "_index",
							"type": "uint256"
						}
					],
					"name": "removeTask",
					"outputs": [],
					"stateMutability": "nonpayable",
					"type": "function"
				},
				{
					"inputs": [],
					"name": "sortTasksByPriority",
					"outputs": [],
					"stateMutability": "nonpayable",
					"type": "function"
				}
			],
			"devdoc": {
				"kind": "dev",
				"methods": {},
				"version": 1
			},
			"evm": {
				"assembly": "    /* \"Task.sol\":65:1953  contract TodoList {... */\n  mstore(0x40, 0x80)\n  callvalue\n  dup1\n  iszero\n  tag_1\n  jumpi\n  0x00\n  dup1\n  revert\ntag_1:\n  pop\n  dataSize(sub_0)\n  dup1\n  dataOffset(sub_0)\n  0x00\n  codecopy\n  0x00\n  return\nstop\n\nsub_0: assembly {\n        /* \"Task.sol\":65:1953  contract TodoList {... */\n      mstore(0x40, 0x80)\n      callvalue\n      dup1\n      iszero\n      tag_1\n      jumpi\n      0x00\n      dup1\n      revert\n    tag_1:\n      pop\n      jumpi(tag_2, lt(calldatasize, 0x04))\n      shr(0xe0, calldataload(0x00))\n      dup1\n      0x04a87e38\n      eq\n      tag_3\n      jumpi\n      dup1\n      0x163aa1c2\n      eq\n      tag_4\n      jumpi\n      dup1\n      0x3143d082\n      eq\n      tag_5\n      jumpi\n      dup1\n      0xa91c55f3\n      eq\n      tag_6\n      jumpi\n      dup1\n      0xc3084117\n      eq\n      tag_7\n      jumpi\n      dup1\n      0xcb7bd995\n      eq\n      tag_8\n      jumpi\n    tag_2:\n      0x00\n      dup1\n      revert\n        /* \"Task.sol\":1864:1951  function getTasks() external view returns (Task[] memory) {... */\n    tag_3:\n      tag_9\n      tag_10\n      jump\t// in\n    tag_9:\n      mload(0x40)\n      tag_11\n      swap2\n      swap1\n      tag_12\n      jump\t// in\n    tag_11:\n      mload(0x40)\n      dup1\n      swap2\n      sub\n      swap1\n      return\n        /* \"Task.sol\":1437:1858  function sortTasksByPriority() external {... */\n    tag_4:\n      tag_13\n      tag_14\n      jump\t// in\n    tag_13:\n      stop\n        /* \"Task.sol\":421:706  function addTask(string calldata _description, uint _priority) external {... */\n    tag_5:\n      tag_15\n      0x04\n      dup1\n      calldatasize\n      sub\n      dup2\n      add\n      swap1\n      tag_16\n      swap2\n      swap1\n      tag_17\n      jump\t// in\n    tag_16:\n      tag_18\n      jump\t// in\n    tag_15:\n      stop\n        /* \"Task.sol\":712:835  function markTaskDone(uint _index) external {... */\n    tag_6:\n      tag_19\n      0x04\n      dup1\n      calldatasize\n      sub\n      dup2\n      add\n      swap1\n      tag_20\n      swap2\n      swap1\n      tag_21\n      jump\t// in\n    tag_20:\n      tag_22\n      jump\t// in\n    tag_19:\n      stop\n        /* \"Task.sol\":841:1173  function removeTask(uint _index) external {... */\n    tag_7:\n      tag_23\n      0x04\n      dup1\n      calldatasize\n      sub\n      dup2\n      add\n      swap1\n      tag_24\n      swap2\n      swap1\n      tag_21\n      jump\t// in\n    tag_24:\n      tag_25\n      jump\t// in\n    tag_23:\n      stop\n        /* \"Task.sol\":1179:1431  function editTask(uint _index, string calldata _newDescription) external {... */\n    tag_8:\n      tag_26\n      0x04\n      dup1\n      calldatasize\n      sub\n      dup2\n      add\n      swap1\n      tag_27\n      swap2\n      swap1\n      tag_28\n      jump\t// in\n    tag_27:\n      tag_29\n      jump\t// in\n    tag_26:\n      stop\n        /* \"Task.sol\":1864:1951  function getTasks() external view returns (Task[] memory) {... */\n    tag_10:\n        /* \"Task.sol\":1907:1920  Task[] memory */\n      0x60\n        /* \"Task.sol\":1939:1944  tasks */\n      0x00\n        /* \"Task.sol\":1932:1944  return tasks */\n      dup1\n      sload\n      dup1\n      0x20\n      mul\n      0x20\n      add\n      mload(0x40)\n      swap1\n      dup2\n      add\n      0x40\n      mstore\n      dup1\n      swap3\n      swap2\n      swap1\n      dup2\n      dup2\n      mstore\n      0x20\n      add\n      0x00\n      swap1\n    tag_31:\n      dup3\n      dup3\n      lt\n      iszero\n      tag_32\n      jumpi\n      dup4\n      dup3\n      swap1\n      0x00\n      mstore\n      keccak256(0x00, 0x20)\n      swap1\n      0x03\n      mul\n      add\n      mload(0x40)\n      dup1\n      0x60\n      add\n      0x40\n      mstore\n      swap1\n      dup2\n      0x00\n      dup3\n      add\n      dup1\n      sload\n      tag_34\n      swap1\n      tag_35\n      jump\t// in\n    tag_34:\n      dup1\n      0x1f\n      add\n      0x20\n      dup1\n      swap2\n      div\n      mul\n      0x20\n      add\n      mload(0x40)\n      swap1\n      dup2\n      add\n      0x40\n      mstore\n      dup1\n      swap3\n      swap2\n      swap1\n      dup2\n      dup2\n      mstore\n      0x20\n      add\n      dup3\n      dup1\n      sload\n      tag_36\n      swap1\n      tag_35\n      jump\t// in\n    tag_36:\n      dup1\n      iszero\n      tag_37\n      jumpi\n      dup1\n      0x1f\n      lt\n      tag_38\n      jumpi\n      0x0100\n      dup1\n      dup4\n      sload\n      div\n      mul\n      dup4\n      mstore\n      swap2\n      0x20\n      add\n      swap2\n      jump(tag_37)\n    tag_38:\n      dup3\n      add\n      swap2\n      swap1\n      0x00\n      mstore\n      keccak256(0x00, 0x20)\n      swap1\n    tag_39:\n      dup2\n      sload\n      dup2\n      mstore\n      swap1\n      0x01\n      add\n      swap1\n      0x20\n      add\n      dup1\n      dup4\n      gt\n      tag_39\n      jumpi\n      dup3\n      swap1\n      sub\n      0x1f\n      and\n      dup3\n      add\n      swap2\n    tag_37:\n      pop\n      pop\n      pop\n      pop\n      pop\n      dup2\n      mstore\n      0x20\n      add\n      0x01\n      dup3\n      add\n      0x00\n      swap1\n      sload\n      swap1\n      0x0100\n      exp\n      swap1\n      div\n      0xff\n      and\n      iszero\n      iszero\n      iszero\n      iszero\n      dup2\n      mstore\n      0x20\n      add\n      0x02\n      dup3\n      add\n      sload\n      dup2\n      mstore\n      pop\n      pop\n      dup2\n      mstore\n      0x20\n      add\n      swap1\n      0x01\n      add\n      swap1\n      jump(tag_31)\n    tag_32:\n      pop\n      pop\n      pop\n      pop\n      swap1\n      pop\n        /* \"Task.sol\":1864:1951  function getTasks() external view returns (Task[] memory) {... */\n      swap1\n      jump\t// out\n        /* \"Task.sol\":1437:1858  function sortTasksByPriority() external {... */\n    tag_14:\n        /* \"Task.sol\":1487:1495  uint len */\n      0x00\n        /* \"Task.sol\":1498:1503  tasks */\n      dup1\n        /* \"Task.sol\":1498:1510  tasks.length */\n      dup1\n      sload\n      swap1\n      pop\n        /* \"Task.sol\":1487:1510  uint len = tasks.length */\n      swap1\n      pop\n        /* \"Task.sol\":1525:1531  uint i */\n      0x00\n        /* \"Task.sol\":1520:1852  for (uint i = 0; i < len - 1; i++) {... */\n    tag_41:\n        /* \"Task.sol\":1547:1548  1 */\n      0x01\n        /* \"Task.sol\":1541:1544  len */\n      dup3\n        /* \"Task.sol\":1541:1548  len - 1 */\n      tag_44\n      swap2\n      swap1\n      tag_45\n      jump\t// in\n    tag_44:\n        /* \"Task.sol\":1537:1538  i */\n      dup2\n        /* \"Task.sol\":1537:1548  i < len - 1 */\n      lt\n        /* \"Task.sol\":1520:1852  for (uint i = 0; i < len - 1; i++) {... */\n      iszero\n      tag_42\n      jumpi\n        /* \"Task.sol\":1574:1580  uint j */\n      0x00\n        /* \"Task.sol\":1569:1842  for (uint j = 0; j < len - i - 1; j++) {... */\n    tag_46:\n        /* \"Task.sol\":1600:1601  1 */\n      0x01\n        /* \"Task.sol\":1596:1597  i */\n      dup3\n        /* \"Task.sol\":1590:1593  len */\n      dup5\n        /* \"Task.sol\":1590:1597  len - i */\n      tag_49\n      swap2\n      swap1\n      tag_45\n      jump\t// in\n    tag_49:\n        /* \"Task.sol\":1590:1601  len - i - 1 */\n      tag_50\n      swap2\n      swap1\n      tag_45\n      jump\t// in\n    tag_50:\n        /* \"Task.sol\":1586:1587  j */\n      dup2\n        /* \"Task.sol\":1586:1601  j < len - i - 1 */\n      lt\n        /* \"Task.sol\":1569:1842  for (uint j = 0; j < len - i - 1; j++) {... */\n      iszero\n      tag_47\n      jumpi\n        /* \"Task.sol\":1650:1655  tasks */\n      0x00\n        /* \"Task.sol\":1660:1661  1 */\n      0x01\n        /* \"Task.sol\":1656:1657  j */\n      dup3\n        /* \"Task.sol\":1656:1661  j + 1 */\n      tag_51\n      swap2\n      swap1\n      tag_52\n      jump\t// in\n    tag_51:\n        /* \"Task.sol\":1650:1662  tasks[j + 1] */\n      dup2\n      sload\n      dup2\n      lt\n      tag_53\n      jumpi\n      tag_54\n      tag_55\n      jump\t// in\n    tag_54:\n    tag_53:\n      swap1\n      0x00\n      mstore\n      keccak256(0x00, 0x20)\n      swap1\n      0x03\n      mul\n      add\n        /* \"Task.sol\":1650:1671  tasks[j + 1].priority */\n      0x02\n      add\n      sload\n        /* \"Task.sol\":1630:1635  tasks */\n      0x00\n        /* \"Task.sol\":1636:1637  j */\n      dup3\n        /* \"Task.sol\":1630:1638  tasks[j] */\n      dup2\n      sload\n      dup2\n      lt\n      tag_57\n      jumpi\n      tag_58\n      tag_55\n      jump\t// in\n    tag_58:\n    tag_57:\n      swap1\n      0x00\n      mstore\n      keccak256(0x00, 0x20)\n      swap1\n      0x03\n      mul\n      add\n        /* \"Task.sol\":1630:1647  tasks[j].priority */\n      0x02\n      add\n      sload\n        /* \"Task.sol\":1630:1671  tasks[j].priority > tasks[j + 1].priority */\n      gt\n        /* \"Task.sol\":1626:1828  if (tasks[j].priority > tasks[j + 1].priority) {... */\n      iszero\n      tag_60\n      jumpi\n        /* \"Task.sol\":1695:1711  Task memory temp */\n      0x00\n        /* \"Task.sol\":1714:1719  tasks */\n      dup1\n        /* \"Task.sol\":1720:1721  j */\n      dup3\n        /* \"Task.sol\":1714:1722  tasks[j] */\n      dup2\n      sload\n      dup2\n      lt\n      tag_61\n      jumpi\n      tag_62\n      tag_55\n      jump\t// in\n    tag_62:\n    tag_61:\n      swap1\n      0x00\n      mstore\n      keccak256(0x00, 0x20)\n      swap1\n      0x03\n      mul\n      add\n        /* \"Task.sol\":1695:1722  Task memory temp = tasks[j] */\n      mload(0x40)\n      dup1\n      0x60\n      add\n      0x40\n      mstore\n      swap1\n      dup2\n      0x00\n      dup3\n      add\n      dup1\n      sload\n      tag_64\n      swap1\n      tag_35\n      jump\t// in\n    tag_64:\n      dup1\n      0x1f\n      add\n      0x20\n      dup1\n      swap2\n      div\n      mul\n      0x20\n      add\n      mload(0x40)\n      swap1\n      dup2\n      add\n      0x40\n      mstore\n      dup1\n      swap3\n      swap2\n      swap1\n      dup2\n      dup2\n      mstore\n      0x20\n      add\n      dup3\n      dup1\n      sload\n      tag_65\n      swap1\n      tag_35\n      jump\t// in\n    tag_65:\n      dup1\n      iszero\n      tag_66\n      jumpi\n      dup1\n      0x1f\n      lt\n      tag_67\n      jumpi\n      0x0100\n      dup1\n      dup4\n      sload\n      div\n      mul\n      dup4\n      mstore\n      swap2\n      0x20\n      add\n      swap2\n      jump(tag_66)\n    tag_67:\n      dup3\n      add\n      swap2\n      swap1\n      0x00\n      mstore\n      keccak256(0x00, 0x20)\n      swap1\n    tag_68:\n      dup2\n      sload\n      dup2\n      mstore\n      swap1\n      0x01\n      add\n      swap1\n      0x20\n      add\n      dup1\n      dup4\n      gt\n      tag_68\n      jumpi\n      dup3\n      swap1\n      sub\n      0x1f\n      and\n      dup3\n      add\n      swap2\n    tag_66:\n      pop\n      pop\n      pop\n      pop\n      pop\n      dup2\n      mstore\n      0x20\n      add\n      0x01\n      dup3\n      add\n      0x00\n      swap1\n      sload\n      swap1\n      0x0100\n      exp\n      swap1\n      div\n      0xff\n      and\n      iszero\n      iszero\n      iszero\n      iszero\n      dup2\n      mstore\n      0x20\n      add\n      0x02\n      dup3\n      add\n      sload\n      dup2\n      mstore\n      pop\n      pop\n      swap1\n      pop\n        /* \"Task.sol\":1755:1760  tasks */\n      0x00\n        /* \"Task.sol\":1765:1766  1 */\n      0x01\n        /* \"Task.sol\":1761:1762  j */\n      dup4\n        /* \"Task.sol\":1761:1766  j + 1 */\n      tag_69\n      swap2\n      swap1\n      tag_52\n      jump\t// in\n    tag_69:\n        /* \"Task.sol\":1755:1767  tasks[j + 1] */\n      dup2\n      sload\n      dup2\n      lt\n      tag_70\n      jumpi\n      tag_71\n      tag_55\n      jump\t// in\n    tag_71:\n    tag_70:\n      swap1\n      0x00\n      mstore\n      keccak256(0x00, 0x20)\n      swap1\n      0x03\n      mul\n      add\n        /* \"Task.sol\":1744:1749  tasks */\n      0x00\n        /* \"Task.sol\":1750:1751  j */\n      dup4\n        /* \"Task.sol\":1744:1752  tasks[j] */\n      dup2\n      sload\n      dup2\n      lt\n      tag_73\n      jumpi\n      tag_74\n      tag_55\n      jump\t// in\n    tag_74:\n    tag_73:\n      swap1\n      0x00\n      mstore\n      keccak256(0x00, 0x20)\n      swap1\n      0x03\n      mul\n      add\n        /* \"Task.sol\":1744:1767  tasks[j] = tasks[j + 1] */\n      0x00\n      dup3\n      add\n      dup2\n      0x00\n      add\n      swap1\n      dup2\n      tag_76\n      swap2\n      swap1\n      tag_77\n      jump\t// in\n    tag_76:\n      pop\n      0x01\n      dup3\n      add\n      0x00\n      swap1\n      sload\n      swap1\n      0x0100\n      exp\n      swap1\n      div\n      0xff\n      and\n      dup2\n      0x01\n      add\n      exp(0x0100, 0x00)\n      dup2\n      sload\n      dup2\n      0xff\n      mul\n      not\n      and\n      swap1\n      dup4\n      iszero\n      iszero\n      mul\n      or\n      swap1\n      sstore\n      pop\n      0x02\n      dup3\n      add\n      sload\n      dup2\n      0x02\n      add\n      sstore\n      swap1\n      pop\n      pop\n        /* \"Task.sol\":1804:1808  temp */\n      dup1\n        /* \"Task.sol\":1789:1794  tasks */\n      0x00\n        /* \"Task.sol\":1799:1800  1 */\n      0x01\n        /* \"Task.sol\":1795:1796  j */\n      dup5\n        /* \"Task.sol\":1795:1800  j + 1 */\n      tag_78\n      swap2\n      swap1\n      tag_52\n      jump\t// in\n    tag_78:\n        /* \"Task.sol\":1789:1801  tasks[j + 1] */\n      dup2\n      sload\n      dup2\n      lt\n      tag_79\n      jumpi\n      tag_80\n      tag_55\n      jump\t// in\n    tag_80:\n    tag_79:\n      swap1\n      0x00\n      mstore\n      keccak256(0x00, 0x20)\n      swap1\n      0x03\n      mul\n      add\n        /* \"Task.sol\":1789:1808  tasks[j + 1] = temp */\n      0x00\n      dup3\n      add\n      mload\n      dup2\n      0x00\n      add\n      swap1\n      dup2\n      tag_82\n      swap2\n      swap1\n      tag_83\n      jump\t// in\n    tag_82:\n      pop\n      0x20\n      dup3\n      add\n      mload\n      dup2\n      0x01\n      add\n      exp(0x0100, 0x00)\n      dup2\n      sload\n      dup2\n      0xff\n      mul\n      not\n      and\n      swap1\n      dup4\n      iszero\n      iszero\n      mul\n      or\n      swap1\n      sstore\n      pop\n      0x40\n      dup3\n      add\n      mload\n      dup2\n      0x02\n      add\n      sstore\n      swap1\n      pop\n      pop\n        /* \"Task.sol\":1673:1828  {... */\n      pop\n        /* \"Task.sol\":1626:1828  if (tasks[j].priority > tasks[j + 1].priority) {... */\n    tag_60:\n        /* \"Task.sol\":1603:1606  j++ */\n      dup1\n      dup1\n      0x01\n      add\n      swap2\n      pop\n      pop\n        /* \"Task.sol\":1569:1842  for (uint j = 0; j < len - i - 1; j++) {... */\n      jump(tag_46)\n    tag_47:\n      pop\n        /* \"Task.sol\":1550:1553  i++ */\n      dup1\n      dup1\n      0x01\n      add\n      swap2\n      pop\n      pop\n        /* \"Task.sol\":1520:1852  for (uint i = 0; i < len - 1; i++) {... */\n      jump(tag_41)\n    tag_42:\n      pop\n        /* \"Task.sol\":1477:1858  {... */\n      pop\n        /* \"Task.sol\":1437:1858  function sortTasksByPriority() external {... */\n      jump\t// out\n        /* \"Task.sol\":421:706  function addTask(string calldata _description, uint _priority) external {... */\n    tag_18:\n        /* \"Task.sol\":520:521  1 */\n      0x01\n        /* \"Task.sol\":507:516  _priority */\n      dup2\n        /* \"Task.sol\":507:521  _priority >= 1 */\n      lt\n      iszero\n        /* \"Task.sol\":507:539  _priority >= 1 && _priority <= 3 */\n      dup1\n      iszero\n      tag_85\n      jumpi\n      pop\n        /* \"Task.sol\":538:539  3 */\n      0x03\n        /* \"Task.sol\":525:534  _priority */\n      dup2\n        /* \"Task.sol\":525:539  _priority <= 3 */\n      gt\n      iszero\n        /* \"Task.sol\":507:539  _priority >= 1 && _priority <= 3 */\n    tag_85:\n        /* \"Task.sol\":503:700  if (_priority >= 1 && _priority <= 3) {... */\n      iszero\n      tag_86\n      jumpi\n        /* \"Task.sol\":555:560  tasks */\n      0x00\n        /* \"Task.sol\":566:602  Task(_description, false, _priority) */\n      mload(0x40)\n      dup1\n      0x60\n      add\n      0x40\n      mstore\n      dup1\n        /* \"Task.sol\":571:583  _description */\n      dup6\n      dup6\n        /* \"Task.sol\":566:602  Task(_description, false, _priority) */\n      dup1\n      dup1\n      0x1f\n      add\n      0x20\n      dup1\n      swap2\n      div\n      mul\n      0x20\n      add\n      mload(0x40)\n      swap1\n      dup2\n      add\n      0x40\n      mstore\n      dup1\n      swap4\n      swap3\n      swap2\n      swap1\n      dup2\n      dup2\n      mstore\n      0x20\n      add\n      dup4\n      dup4\n      dup1\n      dup3\n      dup5\n      calldatacopy\n      0x00\n      dup2\n      dup5\n      add\n      mstore\n      not(0x1f)\n      0x1f\n      dup3\n      add\n      and\n      swap1\n      pop\n      dup1\n      dup4\n      add\n      swap3\n      pop\n      pop\n      pop\n      pop\n      pop\n      pop\n      pop\n      dup2\n      mstore\n      0x20\n      add\n        /* \"Task.sol\":585:590  false */\n      0x00\n        /* \"Task.sol\":566:602  Task(_description, false, _priority) */\n      iszero\n      iszero\n      dup2\n      mstore\n      0x20\n      add\n        /* \"Task.sol\":592:601  _priority */\n      dup4\n        /* \"Task.sol\":566:602  Task(_description, false, _priority) */\n      dup2\n      mstore\n      pop\n        /* \"Task.sol\":555:603  tasks.push(Task(_description, false, _priority)) */\n      swap1\n      dup1\n      0x01\n      dup2\n      sload\n      add\n      dup1\n      dup3\n      sstore\n      dup1\n      swap2\n      pop\n      pop\n      0x01\n      swap1\n      sub\n      swap1\n      0x00\n      mstore\n      keccak256(0x00, 0x20)\n      swap1\n      0x03\n      mul\n      add\n      0x00\n      swap1\n      swap2\n      swap1\n      swap2\n      swap1\n      swap2\n      pop\n      0x00\n      dup3\n      add\n      mload\n      dup2\n      0x00\n      add\n      swap1\n      dup2\n      tag_88\n      swap2\n      swap1\n      tag_83\n      jump\t// in\n    tag_88:\n      pop\n      0x20\n      dup3\n      add\n      mload\n      dup2\n      0x01\n      add\n      exp(0x0100, 0x00)\n      dup2\n      sload\n      dup2\n      0xff\n      mul\n      not\n      and\n      swap1\n      dup4\n      iszero\n      iszero\n      mul\n      or\n      swap1\n      sstore\n      pop\n      0x40\n      dup3\n      add\n      mload\n      dup2\n      0x02\n      add\n      sstore\n      pop\n      pop\n        /* \"Task.sol\":503:700  if (_priority >= 1 && _priority <= 3) {... */\n      jump(tag_89)\n    tag_86:\n        /* \"Task.sol\":634:689  revert(\"Invalid priority. It must be between 1 and 3.\") */\n      mload(0x40)\n      0x08c379a000000000000000000000000000000000000000000000000000000000\n      dup2\n      mstore\n      0x04\n      add\n      tag_90\n      swap1\n      tag_91\n      jump\t// in\n    tag_90:\n      mload(0x40)\n      dup1\n      swap2\n      sub\n      swap1\n      revert\n        /* \"Task.sol\":503:700  if (_priority >= 1 && _priority <= 3) {... */\n    tag_89:\n        /* \"Task.sol\":421:706  function addTask(string calldata _description, uint _priority) external {... */\n      pop\n      pop\n      pop\n      jump\t// out\n        /* \"Task.sol\":712:835  function markTaskDone(uint _index) external {... */\n    tag_22:\n        /* \"Task.sol\":766:785  _taskExists(_index) */\n      tag_93\n        /* \"Task.sol\":778:784  _index */\n      dup2\n        /* \"Task.sol\":766:777  _taskExists */\n      tag_94\n        /* \"Task.sol\":766:785  _taskExists(_index) */\n      jump\t// in\n    tag_93:\n      pop\n        /* \"Task.sol\":824:828  true */\n      0x01\n        /* \"Task.sol\":797:802  tasks */\n      0x00\n        /* \"Task.sol\":803:809  _index */\n      dup3\n        /* \"Task.sol\":797:810  tasks[_index] */\n      dup2\n      sload\n      dup2\n      lt\n      tag_95\n      jumpi\n      tag_96\n      tag_55\n      jump\t// in\n    tag_96:\n    tag_95:\n      swap1\n      0x00\n      mstore\n      keccak256(0x00, 0x20)\n      swap1\n      0x03\n      mul\n      add\n        /* \"Task.sol\":797:821  tasks[_index].TaskStatus */\n      0x01\n      add\n      0x00\n        /* \"Task.sol\":797:828  tasks[_index].TaskStatus = true */\n      0x0100\n      exp\n      dup2\n      sload\n      dup2\n      0xff\n      mul\n      not\n      and\n      swap1\n      dup4\n      iszero\n      iszero\n      mul\n      or\n      swap1\n      sstore\n      pop\n        /* \"Task.sol\":712:835  function markTaskDone(uint _index) external {... */\n      pop\n      jump\t// out\n        /* \"Task.sol\":841:1173  function removeTask(uint _index) external {... */\n    tag_25:\n        /* \"Task.sol\":897:916  _taskExists(_index) */\n      tag_99\n        /* \"Task.sol\":909:915  _index */\n      dup2\n        /* \"Task.sol\":897:908  _taskExists */\n      tag_94\n        /* \"Task.sol\":897:916  _taskExists(_index) */\n      jump\t// in\n    tag_99:\n        /* \"Task.sol\":893:1167  if (_taskExists(_index)) {... */\n      iszero\n      tag_100\n      jumpi\n        /* \"Task.sol\":932:946  uint lastIndex */\n      0x00\n        /* \"Task.sol\":964:965  1 */\n      0x01\n        /* \"Task.sol\":949:954  tasks */\n      0x00\n        /* \"Task.sol\":949:961  tasks.length */\n      dup1\n      sload\n      swap1\n      pop\n        /* \"Task.sol\":949:965  tasks.length - 1 */\n      tag_101\n      swap2\n      swap1\n      tag_45\n      jump\t// in\n    tag_101:\n        /* \"Task.sol\":932:965  uint lastIndex = tasks.length - 1 */\n      swap1\n      pop\n        /* \"Task.sol\":993:1002  lastIndex */\n      dup1\n        /* \"Task.sol\":983:989  _index */\n      dup3\n        /* \"Task.sol\":983:1002  _index != lastIndex */\n      eq\n        /* \"Task.sol\":979:1070  if (_index != lastIndex) {... */\n      tag_102\n      jumpi\n        /* \"Task.sol\":1038:1043  tasks */\n      0x00\n        /* \"Task.sol\":1044:1053  lastIndex */\n      dup2\n        /* \"Task.sol\":1038:1054  tasks[lastIndex] */\n      dup2\n      sload\n      dup2\n      lt\n      tag_103\n      jumpi\n      tag_104\n      tag_55\n      jump\t// in\n    tag_104:\n    tag_103:\n      swap1\n      0x00\n      mstore\n      keccak256(0x00, 0x20)\n      swap1\n      0x03\n      mul\n      add\n        /* \"Task.sol\":1022:1027  tasks */\n      0x00\n        /* \"Task.sol\":1028:1034  _index */\n      dup4\n        /* \"Task.sol\":1022:1035  tasks[_index] */\n      dup2\n      sload\n      dup2\n      lt\n      tag_106\n      jumpi\n      tag_107\n      tag_55\n      jump\t// in\n    tag_107:\n    tag_106:\n      swap1\n      0x00\n      mstore\n      keccak256(0x00, 0x20)\n      swap1\n      0x03\n      mul\n      add\n        /* \"Task.sol\":1022:1054  tasks[_index] = tasks[lastIndex] */\n      0x00\n      dup3\n      add\n      dup2\n      0x00\n      add\n      swap1\n      dup2\n      tag_109\n      swap2\n      swap1\n      tag_77\n      jump\t// in\n    tag_109:\n      pop\n      0x01\n      dup3\n      add\n      0x00\n      swap1\n      sload\n      swap1\n      0x0100\n      exp\n      swap1\n      div\n      0xff\n      and\n      dup2\n      0x01\n      add\n      exp(0x0100, 0x00)\n      dup2\n      sload\n      dup2\n      0xff\n      mul\n      not\n      and\n      swap1\n      dup4\n      iszero\n      iszero\n      mul\n      or\n      swap1\n      sstore\n      pop\n      0x02\n      dup3\n      add\n      sload\n      dup2\n      0x02\n      add\n      sstore\n      swap1\n      pop\n      pop\n        /* \"Task.sol\":979:1070  if (_index != lastIndex) {... */\n    tag_102:\n        /* \"Task.sol\":1083:1088  tasks */\n      0x00\n        /* \"Task.sol\":1083:1094  tasks.pop() */\n      dup1\n      sload\n      dup1\n      tag_110\n      jumpi\n      tag_111\n      tag_112\n      jump\t// in\n    tag_111:\n    tag_110:\n      0x01\n      swap1\n      sub\n      dup2\n      dup2\n      swap1\n      0x00\n      mstore\n      keccak256(0x00, 0x20)\n      swap1\n      0x03\n      mul\n      add\n      0x00\n      dup1\n      dup3\n      add\n      0x00\n      tag_114\n      swap2\n      swap1\n      tag_115\n      jump\t// in\n    tag_114:\n      0x01\n      dup3\n      add\n      exp(0x0100, 0x00)\n      dup2\n      sload\n      swap1\n      0xff\n      mul\n      not\n      and\n      swap1\n      sstore\n      0x02\n      dup3\n      add\n      0x00\n      swap1\n      sstore\n      pop\n      pop\n      swap1\n      sstore\n        /* \"Task.sol\":918:1106  {... */\n      pop\n        /* \"Task.sol\":893:1167  if (_taskExists(_index)) {... */\n      jump(tag_116)\n    tag_100:\n        /* \"Task.sol\":1126:1156  revert(\"Task does not exist.\") */\n      mload(0x40)\n      0x08c379a000000000000000000000000000000000000000000000000000000000\n      dup2\n      mstore\n      0x04\n      add\n      tag_117\n      swap1\n      tag_118\n      jump\t// in\n    tag_117:\n      mload(0x40)\n      dup1\n      swap2\n      sub\n      swap1\n      revert\n        /* \"Task.sol\":893:1167  if (_taskExists(_index)) {... */\n    tag_116:\n        /* \"Task.sol\":841:1173  function removeTask(uint _index) external {... */\n      pop\n      jump\t// out\n        /* \"Task.sol\":1179:1431  function editTask(uint _index, string calldata _newDescription) external {... */\n    tag_29:\n        /* \"Task.sol\":1266:1285  _taskExists(_index) */\n      tag_120\n        /* \"Task.sol\":1278:1284  _index */\n      dup4\n        /* \"Task.sol\":1266:1277  _taskExists */\n      tag_94\n        /* \"Task.sol\":1266:1285  _taskExists(_index) */\n      jump\t// in\n    tag_120:\n        /* \"Task.sol\":1262:1425  if (_taskExists(_index)) {... */\n      iszero\n      tag_121\n      jumpi\n        /* \"Task.sol\":1329:1344  _newDescription */\n      dup2\n      dup2\n        /* \"Task.sol\":1301:1306  tasks */\n      0x00\n        /* \"Task.sol\":1307:1313  _index */\n      dup6\n        /* \"Task.sol\":1301:1314  tasks[_index] */\n      dup2\n      sload\n      dup2\n      lt\n      tag_122\n      jumpi\n      tag_123\n      tag_55\n      jump\t// in\n    tag_123:\n    tag_122:\n      swap1\n      0x00\n      mstore\n      keccak256(0x00, 0x20)\n      swap1\n      0x03\n      mul\n      add\n        /* \"Task.sol\":1301:1326  tasks[_index].description */\n      0x00\n      add\n        /* \"Task.sol\":1301:1344  tasks[_index].description = _newDescription */\n      swap2\n      dup3\n      tag_125\n      swap3\n      swap2\n      swap1\n      tag_126\n      jump\t// in\n    tag_125:\n      pop\n        /* \"Task.sol\":1262:1425  if (_taskExists(_index)) {... */\n      jump(tag_127)\n    tag_121:\n        /* \"Task.sol\":1384:1414  revert(\"Task does not exist.\") */\n      mload(0x40)\n      0x08c379a000000000000000000000000000000000000000000000000000000000\n      dup2\n      mstore\n      0x04\n      add\n      tag_128\n      swap1\n      tag_118\n      jump\t// in\n    tag_128:\n      mload(0x40)\n      dup1\n      swap2\n      sub\n      swap1\n      revert\n        /* \"Task.sol\":1262:1425  if (_taskExists(_index)) {... */\n    tag_127:\n        /* \"Task.sol\":1179:1431  function editTask(uint _index, string calldata _newDescription) external {... */\n      pop\n      pop\n      pop\n      jump\t// out\n        /* \"Task.sol\":217:411  function _taskExists(uint _index) internal view returns (bool) {... */\n    tag_94:\n        /* \"Task.sol\":274:278  bool */\n      0x00\n        /* \"Task.sol\":303:308  tasks */\n      dup1\n        /* \"Task.sol\":303:315  tasks.length */\n      dup1\n      sload\n      swap1\n      pop\n        /* \"Task.sol\":294:300  _index */\n      dup3\n        /* \"Task.sol\":294:315  _index < tasks.length */\n      lt\n        /* \"Task.sol\":290:405  if (_index < tasks.length) {... */\n      iszero\n      tag_130\n      jumpi\n        /* \"Task.sol\":338:342  true */\n      0x01\n        /* \"Task.sol\":331:342  return true */\n      swap1\n      pop\n      jump(tag_129)\n        /* \"Task.sol\":290:405  if (_index < tasks.length) {... */\n    tag_130:\n        /* \"Task.sol\":389:394  false */\n      0x00\n        /* \"Task.sol\":382:394  return false */\n      swap1\n      pop\n        /* \"Task.sol\":217:411  function _taskExists(uint _index) internal view returns (bool) {... */\n    tag_129:\n      swap2\n      swap1\n      pop\n      jump\t// out\n    tag_115:\n      pop\n      dup1\n      sload\n      tag_132\n      swap1\n      tag_35\n      jump\t// in\n    tag_132:\n      0x00\n      dup3\n      sstore\n      dup1\n      0x1f\n      lt\n      tag_134\n      jumpi\n      pop\n      jump(tag_133)\n    tag_134:\n      0x1f\n      add\n      0x20\n      swap1\n      div\n      swap1\n      0x00\n      mstore\n      keccak256(0x00, 0x20)\n      swap1\n      dup2\n      add\n      swap1\n      tag_135\n      swap2\n      swap1\n      tag_136\n      jump\t// in\n    tag_135:\n    tag_133:\n      pop\n      jump\t// out\n    tag_136:\n    tag_137:\n      dup1\n      dup3\n      gt\n      iszero\n      tag_138\n      jumpi\n      0x00\n      dup2\n      0x00\n      swap1\n      sstore\n      pop\n      0x01\n      add\n      jump(tag_137)\n    tag_138:\n      pop\n      swap1\n      jump\t// out\n        /* \"#utility.yul\":7:140   */\n    tag_139:\n        /* \"#utility.yul\":93:99   */\n      0x00\n        /* \"#utility.yul\":127:132   */\n      dup2\n        /* \"#utility.yul\":121:133   */\n      mload\n        /* \"#utility.yul\":111:133   */\n      swap1\n      pop\n        /* \"#utility.yul\":7:140   */\n      swap2\n      swap1\n      pop\n      jump\t// out\n        /* \"#utility.yul\":146:349   */\n    tag_140:\n        /* \"#utility.yul\":264:275   */\n      0x00\n        /* \"#utility.yul\":298:304   */\n      dup3\n        /* \"#utility.yul\":293:296   */\n      dup3\n        /* \"#utility.yul\":286:305   */\n      mstore\n        /* \"#utility.yul\":338:342   */\n      0x20\n        /* \"#utility.yul\":333:336   */\n      dup3\n        /* \"#utility.yul\":329:343   */\n      add\n        /* \"#utility.yul\":314:343   */\n      swap1\n      pop\n        /* \"#utility.yul\":146:349   */\n      swap3\n      swap2\n      pop\n      pop\n      jump\t// out\n        /* \"#utility.yul\":355:506   */\n    tag_141:\n        /* \"#utility.yul\":441:445   */\n      0x00\n        /* \"#utility.yul\":464:467   */\n      dup2\n        /* \"#utility.yul\":456:467   */\n      swap1\n      pop\n        /* \"#utility.yul\":494:498   */\n      0x20\n        /* \"#utility.yul\":489:492   */\n      dup3\n        /* \"#utility.yul\":485:499   */\n      add\n        /* \"#utility.yul\":477:499   */\n      swap1\n      pop\n        /* \"#utility.yul\":355:506   */\n      swap2\n      swap1\n      pop\n      jump\t// out\n        /* \"#utility.yul\":512:611   */\n    tag_142:\n        /* \"#utility.yul\":564:570   */\n      0x00\n        /* \"#utility.yul\":598:603   */\n      dup2\n        /* \"#utility.yul\":592:604   */\n      mload\n        /* \"#utility.yul\":582:604   */\n      swap1\n      pop\n        /* \"#utility.yul\":512:611   */\n      swap2\n      swap1\n      pop\n      jump\t// out\n        /* \"#utility.yul\":617:776   */\n    tag_143:\n        /* \"#utility.yul\":691:702   */\n      0x00\n        /* \"#utility.yul\":725:731   */\n      dup3\n        /* \"#utility.yul\":720:723   */\n      dup3\n        /* \"#utility.yul\":713:732   */\n      mstore\n        /* \"#utility.yul\":765:769   */\n      0x20\n        /* \"#utility.yul\":760:763   */\n      dup3\n        /* \"#utility.yul\":756:770   */\n      add\n        /* \"#utility.yul\":741:770   */\n      swap1\n      pop\n        /* \"#utility.yul\":617:776   */\n      swap3\n      swap2\n      pop\n      pop\n      jump\t// out\n        /* \"#utility.yul\":782:921   */\n    tag_144:\n        /* \"#utility.yul\":871:877   */\n      dup3\n        /* \"#utility.yul\":866:869   */\n      dup2\n        /* \"#utility.yul\":861:864   */\n      dup4\n        /* \"#utility.yul\":855:878   */\n      mcopy\n        /* \"#utility.yul\":912:913   */\n      0x00\n        /* \"#utility.yul\":903:909   */\n      dup4\n        /* \"#utility.yul\":898:901   */\n      dup4\n        /* \"#utility.yul\":894:910   */\n      add\n        /* \"#utility.yul\":887:914   */\n      mstore\n        /* \"#utility.yul\":782:921   */\n      pop\n      pop\n      pop\n      jump\t// out\n        /* \"#utility.yul\":927:1029   */\n    tag_145:\n        /* \"#utility.yul\":968:974   */\n      0x00\n        /* \"#utility.yul\":1019:1021   */\n      0x1f\n        /* \"#utility.yul\":1015:1022   */\n      not\n        /* \"#utility.yul\":1010:1012   */\n      0x1f\n        /* \"#utility.yul\":1003:1008   */\n      dup4\n        /* \"#utility.yul\":999:1013   */\n      add\n        /* \"#utility.yul\":995:1023   */\n      and\n        /* \"#utility.yul\":985:1023   */\n      swap1\n      pop\n        /* \"#utility.yul\":927:1029   */\n      swap2\n      swap1\n      pop\n      jump\t// out\n        /* \"#utility.yul\":1035:1392   */\n    tag_146:\n        /* \"#utility.yul\":1113:1116   */\n      0x00\n        /* \"#utility.yul\":1141:1180   */\n      tag_198\n        /* \"#utility.yul\":1174:1179   */\n      dup3\n        /* \"#utility.yul\":1141:1180   */\n      tag_142\n      jump\t// in\n    tag_198:\n        /* \"#utility.yul\":1196:1257   */\n      tag_199\n        /* \"#utility.yul\":1250:1256   */\n      dup2\n        /* \"#utility.yul\":1245:1248   */\n      dup6\n        /* \"#utility.yul\":1196:1257   */\n      tag_143\n      jump\t// in\n    tag_199:\n        /* \"#utility.yul\":1189:1257   */\n      swap4\n      pop\n        /* \"#utility.yul\":1266:1331   */\n      tag_200\n        /* \"#utility.yul\":1324:1330   */\n      dup2\n        /* \"#utility.yul\":1319:1322   */\n      dup6\n        /* \"#utility.yul\":1312:1316   */\n      0x20\n        /* \"#utility.yul\":1305:1310   */\n      dup7\n        /* \"#utility.yul\":1301:1317   */\n      add\n        /* \"#utility.yul\":1266:1331   */\n      tag_144\n      jump\t// in\n    tag_200:\n        /* \"#utility.yul\":1356:1385   */\n      tag_201\n        /* \"#utility.yul\":1378:1384   */\n      dup2\n        /* \"#utility.yul\":1356:1385   */\n      tag_145\n      jump\t// in\n    tag_201:\n        /* \"#utility.yul\":1351:1354   */\n      dup5\n        /* \"#utility.yul\":1347:1386   */\n      add\n        /* \"#utility.yul\":1340:1386   */\n      swap2\n      pop\n        /* \"#utility.yul\":1117:1392   */\n      pop\n        /* \"#utility.yul\":1035:1392   */\n      swap3\n      swap2\n      pop\n      pop\n      jump\t// out\n        /* \"#utility.yul\":1398:1488   */\n    tag_147:\n        /* \"#utility.yul\":1432:1439   */\n      0x00\n        /* \"#utility.yul\":1475:1480   */\n      dup2\n        /* \"#utility.yul\":1468:1481   */\n      iszero\n        /* \"#utility.yul\":1461:1482   */\n      iszero\n        /* \"#utility.yul\":1450:1482   */\n      swap1\n      pop\n        /* \"#utility.yul\":1398:1488   */\n      swap2\n      swap1\n      pop\n      jump\t// out\n        /* \"#utility.yul\":1494:1593   */\n    tag_148:\n        /* \"#utility.yul\":1565:1586   */\n      tag_204\n        /* \"#utility.yul\":1580:1585   */\n      dup2\n        /* \"#utility.yul\":1565:1586   */\n      tag_147\n      jump\t// in\n    tag_204:\n        /* \"#utility.yul\":1560:1563   */\n      dup3\n        /* \"#utility.yul\":1553:1587   */\n      mstore\n        /* \"#utility.yul\":1494:1593   */\n      pop\n      pop\n      jump\t// out\n        /* \"#utility.yul\":1599:1676   */\n    tag_149:\n        /* \"#utility.yul\":1636:1643   */\n      0x00\n        /* \"#utility.yul\":1665:1670   */\n      dup2\n        /* \"#utility.yul\":1654:1670   */\n      swap1\n      pop\n        /* \"#utility.yul\":1599:1676   */\n      swap2\n      swap1\n      pop\n      jump\t// out\n        /* \"#utility.yul\":1682:1790   */\n    tag_150:\n        /* \"#utility.yul\":1759:1783   */\n      tag_207\n        /* \"#utility.yul\":1777:1782   */\n      dup2\n        /* \"#utility.yul\":1759:1783   */\n      tag_149\n      jump\t// in\n    tag_207:\n        /* \"#utility.yul\":1754:1757   */\n      dup3\n        /* \"#utility.yul\":1747:1784   */\n      mstore\n        /* \"#utility.yul\":1682:1790   */\n      pop\n      pop\n      jump\t// out\n        /* \"#utility.yul\":1848:2617   */\n    tag_151:\n        /* \"#utility.yul\":1945:1948   */\n      0x00\n        /* \"#utility.yul\":1981:1985   */\n      0x60\n        /* \"#utility.yul\":1976:1979   */\n      dup4\n        /* \"#utility.yul\":1972:1986   */\n      add\n        /* \"#utility.yul\":2075:2079   */\n      0x00\n        /* \"#utility.yul\":2068:2073   */\n      dup4\n        /* \"#utility.yul\":2064:2080   */\n      add\n        /* \"#utility.yul\":2058:2081   */\n      mload\n        /* \"#utility.yul\":2128:2131   */\n      dup5\n        /* \"#utility.yul\":2122:2126   */\n      dup3\n        /* \"#utility.yul\":2118:2132   */\n      sub\n        /* \"#utility.yul\":2111:2115   */\n      0x00\n        /* \"#utility.yul\":2106:2109   */\n      dup7\n        /* \"#utility.yul\":2102:2116   */\n      add\n        /* \"#utility.yul\":2095:2133   */\n      mstore\n        /* \"#utility.yul\":2154:2227   */\n      tag_209\n        /* \"#utility.yul\":2222:2226   */\n      dup3\n        /* \"#utility.yul\":2208:2220   */\n      dup3\n        /* \"#utility.yul\":2154:2227   */\n      tag_146\n      jump\t// in\n    tag_209:\n        /* \"#utility.yul\":2146:2227   */\n      swap2\n      pop\n        /* \"#utility.yul\":1996:2238   */\n      pop\n        /* \"#utility.yul\":2326:2330   */\n      0x20\n        /* \"#utility.yul\":2319:2324   */\n      dup4\n        /* \"#utility.yul\":2315:2331   */\n      add\n        /* \"#utility.yul\":2309:2332   */\n      mload\n        /* \"#utility.yul\":2345:2402   */\n      tag_210\n        /* \"#utility.yul\":2396:2400   */\n      0x20\n        /* \"#utility.yul\":2391:2394   */\n      dup7\n        /* \"#utility.yul\":2387:2401   */\n      add\n        /* \"#utility.yul\":2373:2385   */\n      dup3\n        /* \"#utility.yul\":2345:2402   */\n      tag_148\n      jump\t// in\n    tag_210:\n        /* \"#utility.yul\":2248:2412   */\n      pop\n        /* \"#utility.yul\":2498:2502   */\n      0x40\n        /* \"#utility.yul\":2491:2496   */\n      dup4\n        /* \"#utility.yul\":2487:2503   */\n      add\n        /* \"#utility.yul\":2481:2504   */\n      mload\n        /* \"#utility.yul\":2517:2580   */\n      tag_211\n        /* \"#utility.yul\":2574:2578   */\n      0x40\n        /* \"#utility.yul\":2569:2572   */\n      dup7\n        /* \"#utility.yul\":2565:2579   */\n      add\n        /* \"#utility.yul\":2551:2563   */\n      dup3\n        /* \"#utility.yul\":2517:2580   */\n      tag_150\n      jump\t// in\n    tag_211:\n        /* \"#utility.yul\":2422:2590   */\n      pop\n        /* \"#utility.yul\":2607:2611   */\n      dup1\n        /* \"#utility.yul\":2600:2611   */\n      swap2\n      pop\n        /* \"#utility.yul\":1950:2617   */\n      pop\n        /* \"#utility.yul\":1848:2617   */\n      swap3\n      swap2\n      pop\n      pop\n      jump\t// out\n        /* \"#utility.yul\":2623:2855   */\n    tag_152:\n        /* \"#utility.yul\":2730:2740   */\n      0x00\n        /* \"#utility.yul\":2765:2849   */\n      tag_213\n        /* \"#utility.yul\":2845:2848   */\n      dup4\n        /* \"#utility.yul\":2837:2843   */\n      dup4\n        /* \"#utility.yul\":2765:2849   */\n      tag_151\n      jump\t// in\n    tag_213:\n        /* \"#utility.yul\":2751:2849   */\n      swap1\n      pop\n        /* \"#utility.yul\":2623:2855   */\n      swap3\n      swap2\n      pop\n      pop\n      jump\t// out\n        /* \"#utility.yul\":2861:2993   */\n    tag_153:\n        /* \"#utility.yul\":2950:2954   */\n      0x00\n        /* \"#utility.yul\":2982:2986   */\n      0x20\n        /* \"#utility.yul\":2977:2980   */\n      dup3\n        /* \"#utility.yul\":2973:2987   */\n      add\n        /* \"#utility.yul\":2965:2987   */\n      swap1\n      pop\n        /* \"#utility.yul\":2861:2993   */\n      swap2\n      swap1\n      pop\n      jump\t// out\n        /* \"#utility.yul\":3055:4118   */\n    tag_154:\n        /* \"#utility.yul\":3212:3215   */\n      0x00\n        /* \"#utility.yul\":3241:3314   */\n      tag_216\n        /* \"#utility.yul\":3308:3313   */\n      dup3\n        /* \"#utility.yul\":3241:3314   */\n      tag_139\n      jump\t// in\n    tag_216:\n        /* \"#utility.yul\":3330:3435   */\n      tag_217\n        /* \"#utility.yul\":3428:3434   */\n      dup2\n        /* \"#utility.yul\":3423:3426   */\n      dup6\n        /* \"#utility.yul\":3330:3435   */\n      tag_140\n      jump\t// in\n    tag_217:\n        /* \"#utility.yul\":3323:3435   */\n      swap4\n      pop\n        /* \"#utility.yul\":3461:3464   */\n      dup4\n        /* \"#utility.yul\":3506:3510   */\n      0x20\n        /* \"#utility.yul\":3498:3504   */\n      dup3\n        /* \"#utility.yul\":3494:3511   */\n      mul\n        /* \"#utility.yul\":3489:3492   */\n      dup6\n        /* \"#utility.yul\":3485:3512   */\n      add\n        /* \"#utility.yul\":3536:3611   */\n      tag_218\n        /* \"#utility.yul\":3605:3610   */\n      dup6\n        /* \"#utility.yul\":3536:3611   */\n      tag_141\n      jump\t// in\n    tag_218:\n        /* \"#utility.yul\":3634:3641   */\n      dup1\n        /* \"#utility.yul\":3665:3666   */\n      0x00\n        /* \"#utility.yul\":3650:4073   */\n    tag_219:\n        /* \"#utility.yul\":3675:3681   */\n      dup6\n        /* \"#utility.yul\":3672:3673   */\n      dup2\n        /* \"#utility.yul\":3669:3682   */\n      lt\n        /* \"#utility.yul\":3650:4073   */\n      iszero\n      tag_221\n      jumpi\n        /* \"#utility.yul\":3746:3755   */\n      dup5\n        /* \"#utility.yul\":3740:3744   */\n      dup5\n        /* \"#utility.yul\":3736:3756   */\n      sub\n        /* \"#utility.yul\":3731:3734   */\n      dup10\n        /* \"#utility.yul\":3724:3757   */\n      mstore\n        /* \"#utility.yul\":3797:3803   */\n      dup2\n        /* \"#utility.yul\":3791:3804   */\n      mload\n        /* \"#utility.yul\":3825:3927   */\n      tag_222\n        /* \"#utility.yul\":3922:3926   */\n      dup6\n        /* \"#utility.yul\":3907:3920   */\n      dup3\n        /* \"#utility.yul\":3825:3927   */\n      tag_152\n      jump\t// in\n    tag_222:\n        /* \"#utility.yul\":3817:3927   */\n      swap5\n      pop\n        /* \"#utility.yul\":3950:4029   */\n      tag_223\n        /* \"#utility.yul\":4022:4028   */\n      dup4\n        /* \"#utility.yul\":3950:4029   */\n      tag_153\n      jump\t// in\n    tag_223:\n        /* \"#utility.yul\":3940:4029   */\n      swap3\n      pop\n        /* \"#utility.yul\":4058:4062   */\n      0x20\n        /* \"#utility.yul\":4053:4056   */\n      dup11\n        /* \"#utility.yul\":4049:4063   */\n      add\n        /* \"#utility.yul\":4042:4063   */\n      swap10\n      pop\n        /* \"#utility.yul\":3710:4073   */\n      pop\n        /* \"#utility.yul\":3697:3698   */\n      0x01\n        /* \"#utility.yul\":3694:3695   */\n      dup2\n        /* \"#utility.yul\":3690:3699   */\n      add\n        /* \"#utility.yul\":3685:3699   */\n      swap1\n      pop\n        /* \"#utility.yul\":3650:4073   */\n      jump(tag_219)\n    tag_221:\n        /* \"#utility.yul\":3654:3668   */\n      pop\n        /* \"#utility.yul\":4089:4093   */\n      dup3\n        /* \"#utility.yul\":4082:4093   */\n      swap8\n      pop\n        /* \"#utility.yul\":4109:4112   */\n      dup8\n        /* \"#utility.yul\":4102:4112   */\n      swap6\n      pop\n        /* \"#utility.yul\":3217:4118   */\n      pop\n      pop\n      pop\n      pop\n      pop\n        /* \"#utility.yul\":3055:4118   */\n      swap3\n      swap2\n      pop\n      pop\n      jump\t// out\n        /* \"#utility.yul\":4124:4573   */\n    tag_12:\n        /* \"#utility.yul\":4305:4309   */\n      0x00\n        /* \"#utility.yul\":4343:4345   */\n      0x20\n        /* \"#utility.yul\":4332:4341   */\n      dup3\n        /* \"#utility.yul\":4328:4346   */\n      add\n        /* \"#utility.yul\":4320:4346   */\n      swap1\n      pop\n        /* \"#utility.yul\":4392:4401   */\n      dup2\n        /* \"#utility.yul\":4386:4390   */\n      dup2\n        /* \"#utility.yul\":4382:4402   */\n      sub\n        /* \"#utility.yul\":4378:4379   */\n      0x00\n        /* \"#utility.yul\":4367:4376   */\n      dup4\n        /* \"#utility.yul\":4363:4380   */\n      add\n        /* \"#utility.yul\":4356:4403   */\n      mstore\n        /* \"#utility.yul\":4420:4566   */\n      tag_225\n        /* \"#utility.yul\":4561:4565   */\n      dup2\n        /* \"#utility.yul\":4552:4558   */\n      dup5\n        /* \"#utility.yul\":4420:4566   */\n      tag_154\n      jump\t// in\n    tag_225:\n        /* \"#utility.yul\":4412:4566   */\n      swap1\n      pop\n        /* \"#utility.yul\":4124:4573   */\n      swap3\n      swap2\n      pop\n      pop\n      jump\t// out\n        /* \"#utility.yul\":4660:4777   */\n    tag_156:\n        /* \"#utility.yul\":4769:4770   */\n      0x00\n        /* \"#utility.yul\":4766:4767   */\n      dup1\n        /* \"#utility.yul\":4759:4771   */\n      revert\n        /* \"#utility.yul\":4783:4900   */\n    tag_157:\n        /* \"#utility.yul\":4892:4893   */\n      0x00\n        /* \"#utility.yul\":4889:4890   */\n      dup1\n        /* \"#utility.yul\":4882:4894   */\n      revert\n        /* \"#utility.yul\":4906:5023   */\n    tag_158:\n        /* \"#utility.yul\":5015:5016   */\n      0x00\n        /* \"#utility.yul\":5012:5013   */\n      dup1\n        /* \"#utility.yul\":5005:5017   */\n      revert\n        /* \"#utility.yul\":5029:5146   */\n    tag_159:\n        /* \"#utility.yul\":5138:5139   */\n      0x00\n        /* \"#utility.yul\":5135:5136   */\n      dup1\n        /* \"#utility.yul\":5128:5140   */\n      revert\n        /* \"#utility.yul\":5152:5269   */\n    tag_160:\n        /* \"#utility.yul\":5261:5262   */\n      0x00\n        /* \"#utility.yul\":5258:5259   */\n      dup1\n        /* \"#utility.yul\":5251:5263   */\n      revert\n        /* \"#utility.yul\":5289:5842   */\n    tag_161:\n        /* \"#utility.yul\":5347:5355   */\n      0x00\n        /* \"#utility.yul\":5357:5363   */\n      dup1\n        /* \"#utility.yul\":5407:5410   */\n      dup4\n        /* \"#utility.yul\":5400:5404   */\n      0x1f\n        /* \"#utility.yul\":5392:5398   */\n      dup5\n        /* \"#utility.yul\":5388:5405   */\n      add\n        /* \"#utility.yul\":5384:5411   */\n      slt\n        /* \"#utility.yul\":5374:5496   */\n      tag_233\n      jumpi\n        /* \"#utility.yul\":5415:5494   */\n      tag_234\n      tag_158\n      jump\t// in\n    tag_234:\n        /* \"#utility.yul\":5374:5496   */\n    tag_233:\n        /* \"#utility.yul\":5528:5534   */\n      dup3\n        /* \"#utility.yul\":5515:5535   */\n      calldataload\n        /* \"#utility.yul\":5505:5535   */\n      swap1\n      pop\n        /* \"#utility.yul\":5558:5576   */\n      0xffffffffffffffff\n        /* \"#utility.yul\":5550:5556   */\n      dup2\n        /* \"#utility.yul\":5547:5577   */\n      gt\n        /* \"#utility.yul\":5544:5661   */\n      iszero\n      tag_235\n      jumpi\n        /* \"#utility.yul\":5580:5659   */\n      tag_236\n      tag_159\n      jump\t// in\n    tag_236:\n        /* \"#utility.yul\":5544:5661   */\n    tag_235:\n        /* \"#utility.yul\":5694:5698   */\n      0x20\n        /* \"#utility.yul\":5686:5692   */\n      dup4\n        /* \"#utility.yul\":5682:5699   */\n      add\n        /* \"#utility.yul\":5670:5699   */\n      swap2\n      pop\n        /* \"#utility.yul\":5748:5751   */\n      dup4\n        /* \"#utility.yul\":5740:5744   */\n      0x01\n        /* \"#utility.yul\":5732:5738   */\n      dup3\n        /* \"#utility.yul\":5728:5745   */\n      mul\n        /* \"#utility.yul\":5718:5726   */\n      dup4\n        /* \"#utility.yul\":5714:5746   */\n      add\n        /* \"#utility.yul\":5711:5752   */\n      gt\n        /* \"#utility.yul\":5708:5836   */\n      iszero\n      tag_237\n      jumpi\n        /* \"#utility.yul\":5755:5834   */\n      tag_238\n      tag_160\n      jump\t// in\n    tag_238:\n        /* \"#utility.yul\":5708:5836   */\n    tag_237:\n        /* \"#utility.yul\":5289:5842   */\n      swap3\n      pop\n      swap3\n      swap1\n      pop\n      jump\t// out\n        /* \"#utility.yul\":5848:5970   */\n    tag_162:\n        /* \"#utility.yul\":5921:5945   */\n      tag_240\n        /* \"#utility.yul\":5939:5944   */\n      dup2\n        /* \"#utility.yul\":5921:5945   */\n      tag_149\n      jump\t// in\n    tag_240:\n        /* \"#utility.yul\":5914:5919   */\n      dup2\n        /* \"#utility.yul\":5911:5946   */\n      eq\n        /* \"#utility.yul\":5901:5964   */\n      tag_241\n      jumpi\n        /* \"#utility.yul\":5960:5961   */\n      0x00\n        /* \"#utility.yul\":5957:5958   */\n      dup1\n        /* \"#utility.yul\":5950:5962   */\n      revert\n        /* \"#utility.yul\":5901:5964   */\n    tag_241:\n        /* \"#utility.yul\":5848:5970   */\n      pop\n      jump\t// out\n        /* \"#utility.yul\":5976:6115   */\n    tag_163:\n        /* \"#utility.yul\":6022:6027   */\n      0x00\n        /* \"#utility.yul\":6060:6066   */\n      dup2\n        /* \"#utility.yul\":6047:6067   */\n      calldataload\n        /* \"#utility.yul\":6038:6067   */\n      swap1\n      pop\n        /* \"#utility.yul\":6076:6109   */\n      tag_243\n        /* \"#utility.yul\":6103:6108   */\n      dup2\n        /* \"#utility.yul\":6076:6109   */\n      tag_162\n      jump\t// in\n    tag_243:\n        /* \"#utility.yul\":5976:6115   */\n      swap3\n      swap2\n      pop\n      pop\n      jump\t// out\n        /* \"#utility.yul\":6121:6795   */\n    tag_17:\n        /* \"#utility.yul\":6201:6207   */\n      0x00\n        /* \"#utility.yul\":6209:6215   */\n      dup1\n        /* \"#utility.yul\":6217:6223   */\n      0x00\n        /* \"#utility.yul\":6266:6268   */\n      0x40\n        /* \"#utility.yul\":6254:6263   */\n      dup5\n        /* \"#utility.yul\":6245:6252   */\n      dup7\n        /* \"#utility.yul\":6241:6264   */\n      sub\n        /* \"#utility.yul\":6237:6269   */\n      slt\n        /* \"#utility.yul\":6234:6353   */\n      iszero\n      tag_245\n      jumpi\n        /* \"#utility.yul\":6272:6351   */\n      tag_246\n      tag_156\n      jump\t// in\n    tag_246:\n        /* \"#utility.yul\":6234:6353   */\n    tag_245:\n        /* \"#utility.yul\":6420:6421   */\n      0x00\n        /* \"#utility.yul\":6409:6418   */\n      dup5\n        /* \"#utility.yul\":6405:6422   */\n      add\n        /* \"#utility.yul\":6392:6423   */\n      calldataload\n        /* \"#utility.yul\":6450:6468   */\n      0xffffffffffffffff\n        /* \"#utility.yul\":6442:6448   */\n      dup2\n        /* \"#utility.yul\":6439:6469   */\n      gt\n        /* \"#utility.yul\":6436:6553   */\n      iszero\n      tag_247\n      jumpi\n        /* \"#utility.yul\":6472:6551   */\n      tag_248\n      tag_157\n      jump\t// in\n    tag_248:\n        /* \"#utility.yul\":6436:6553   */\n    tag_247:\n        /* \"#utility.yul\":6585:6650   */\n      tag_249\n        /* \"#utility.yul\":6642:6649   */\n      dup7\n        /* \"#utility.yul\":6633:6639   */\n      dup3\n        /* \"#utility.yul\":6622:6631   */\n      dup8\n        /* \"#utility.yul\":6618:6640   */\n      add\n        /* \"#utility.yul\":6585:6650   */\n      tag_161\n      jump\t// in\n    tag_249:\n        /* \"#utility.yul\":6567:6650   */\n      swap4\n      pop\n      swap4\n      pop\n        /* \"#utility.yul\":6363:6660   */\n      pop\n        /* \"#utility.yul\":6699:6701   */\n      0x20\n        /* \"#utility.yul\":6725:6778   */\n      tag_250\n        /* \"#utility.yul\":6770:6777   */\n      dup7\n        /* \"#utility.yul\":6761:6767   */\n      dup3\n        /* \"#utility.yul\":6750:6759   */\n      dup8\n        /* \"#utility.yul\":6746:6768   */\n      add\n        /* \"#utility.yul\":6725:6778   */\n      tag_163\n      jump\t// in\n    tag_250:\n        /* \"#utility.yul\":6715:6778   */\n      swap2\n      pop\n        /* \"#utility.yul\":6670:6788   */\n      pop\n        /* \"#utility.yul\":6121:6795   */\n      swap3\n      pop\n      swap3\n      pop\n      swap3\n      jump\t// out\n        /* \"#utility.yul\":6801:7130   */\n    tag_21:\n        /* \"#utility.yul\":6860:6866   */\n      0x00\n        /* \"#utility.yul\":6909:6911   */\n      0x20\n        /* \"#utility.yul\":6897:6906   */\n      dup3\n        /* \"#utility.yul\":6888:6895   */\n      dup5\n        /* \"#utility.yul\":6884:6907   */\n      sub\n        /* \"#utility.yul\":6880:6912   */\n      slt\n        /* \"#utility.yul\":6877:6996   */\n      iszero\n      tag_252\n      jumpi\n        /* \"#utility.yul\":6915:6994   */\n      tag_253\n      tag_156\n      jump\t// in\n    tag_253:\n        /* \"#utility.yul\":6877:6996   */\n    tag_252:\n        /* \"#utility.yul\":7035:7036   */\n      0x00\n        /* \"#utility.yul\":7060:7113   */\n      tag_254\n        /* \"#utility.yul\":7105:7112   */\n      dup5\n        /* \"#utility.yul\":7096:7102   */\n      dup3\n        /* \"#utility.yul\":7085:7094   */\n      dup6\n        /* \"#utility.yul\":7081:7103   */\n      add\n        /* \"#utility.yul\":7060:7113   */\n      tag_163\n      jump\t// in\n    tag_254:\n        /* \"#utility.yul\":7050:7113   */\n      swap2\n      pop\n        /* \"#utility.yul\":7006:7123   */\n      pop\n        /* \"#utility.yul\":6801:7130   */\n      swap3\n      swap2\n      pop\n      pop\n      jump\t// out\n        /* \"#utility.yul\":7136:7810   */\n    tag_28:\n        /* \"#utility.yul\":7216:7222   */\n      0x00\n        /* \"#utility.yul\":7224:7230   */\n      dup1\n        /* \"#utility.yul\":7232:7238   */\n      0x00\n        /* \"#utility.yul\":7281:7283   */\n      0x40\n        /* \"#utility.yul\":7269:7278   */\n      dup5\n        /* \"#utility.yul\":7260:7267   */\n      dup7\n        /* \"#utility.yul\":7256:7279   */\n      sub\n        /* \"#utility.yul\":7252:7284   */\n      slt\n        /* \"#utility.yul\":7249:7368   */\n      iszero\n      tag_256\n      jumpi\n        /* \"#utility.yul\":7287:7366   */\n      tag_257\n      tag_156\n      jump\t// in\n    tag_257:\n        /* \"#utility.yul\":7249:7368   */\n    tag_256:\n        /* \"#utility.yul\":7407:7408   */\n      0x00\n        /* \"#utility.yul\":7432:7485   */\n      tag_258\n        /* \"#utility.yul\":7477:7484   */\n      dup7\n        /* \"#utility.yul\":7468:7474   */\n      dup3\n        /* \"#utility.yul\":7457:7466   */\n      dup8\n        /* \"#utility.yul\":7453:7475   */\n      add\n        /* \"#utility.yul\":7432:7485   */\n      tag_163\n      jump\t// in\n    tag_258:\n        /* \"#utility.yul\":7422:7485   */\n      swap4\n      pop\n        /* \"#utility.yul\":7378:7495   */\n      pop\n        /* \"#utility.yul\":7562:7564   */\n      0x20\n        /* \"#utility.yul\":7551:7560   */\n      dup5\n        /* \"#utility.yul\":7547:7565   */\n      add\n        /* \"#utility.yul\":7534:7566   */\n      calldataload\n        /* \"#utility.yul\":7593:7611   */\n      0xffffffffffffffff\n        /* \"#utility.yul\":7585:7591   */\n      dup2\n        /* \"#utility.yul\":7582:7612   */\n      gt\n        /* \"#utility.yul\":7579:7696   */\n      iszero\n      tag_259\n      jumpi\n        /* \"#utility.yul\":7615:7694   */\n      tag_260\n      tag_157\n      jump\t// in\n    tag_260:\n        /* \"#utility.yul\":7579:7696   */\n    tag_259:\n        /* \"#utility.yul\":7728:7793   */\n      tag_261\n        /* \"#utility.yul\":7785:7792   */\n      dup7\n        /* \"#utility.yul\":7776:7782   */\n      dup3\n        /* \"#utility.yul\":7765:7774   */\n      dup8\n        /* \"#utility.yul\":7761:7783   */\n      add\n        /* \"#utility.yul\":7728:7793   */\n      tag_161\n      jump\t// in\n    tag_261:\n        /* \"#utility.yul\":7710:7793   */\n      swap3\n      pop\n      swap3\n      pop\n        /* \"#utility.yul\":7505:7803   */\n      pop\n        /* \"#utility.yul\":7136:7810   */\n      swap3\n      pop\n      swap3\n      pop\n      swap3\n      jump\t// out\n        /* \"#utility.yul\":7816:7996   */\n    tag_164:\n        /* \"#utility.yul\":7864:7941   */\n      0x4e487b7100000000000000000000000000000000000000000000000000000000\n        /* \"#utility.yul\":7861:7862   */\n      0x00\n        /* \"#utility.yul\":7854:7942   */\n      mstore\n        /* \"#utility.yul\":7961:7965   */\n      0x22\n        /* \"#utility.yul\":7958:7959   */\n      0x04\n        /* \"#utility.yul\":7951:7966   */\n      mstore\n        /* \"#utility.yul\":7985:7989   */\n      0x24\n        /* \"#utility.yul\":7982:7983   */\n      0x00\n        /* \"#utility.yul\":7975:7990   */\n      revert\n        /* \"#utility.yul\":8002:8322   */\n    tag_35:\n        /* \"#utility.yul\":8046:8052   */\n      0x00\n        /* \"#utility.yul\":8083:8084   */\n      0x02\n        /* \"#utility.yul\":8077:8081   */\n      dup3\n        /* \"#utility.yul\":8073:8085   */\n      div\n        /* \"#utility.yul\":8063:8085   */\n      swap1\n      pop\n        /* \"#utility.yul\":8130:8131   */\n      0x01\n        /* \"#utility.yul\":8124:8128   */\n      dup3\n        /* \"#utility.yul\":8120:8132   */\n      and\n        /* \"#utility.yul\":8151:8169   */\n      dup1\n        /* \"#utility.yul\":8141:8222   */\n      tag_264\n      jumpi\n        /* \"#utility.yul\":8207:8211   */\n      0x7f\n        /* \"#utility.yul\":8199:8205   */\n      dup3\n        /* \"#utility.yul\":8195:8212   */\n      and\n        /* \"#utility.yul\":8185:8212   */\n      swap2\n      pop\n        /* \"#utility.yul\":8141:8222   */\n    tag_264:\n        /* \"#utility.yul\":8269:8271   */\n      0x20\n        /* \"#utility.yul\":8261:8267   */\n      dup3\n        /* \"#utility.yul\":8258:8272   */\n      lt\n        /* \"#utility.yul\":8238:8256   */\n      dup2\n        /* \"#utility.yul\":8235:8273   */\n      sub\n        /* \"#utility.yul\":8232:8316   */\n      tag_265\n      jumpi\n        /* \"#utility.yul\":8288:8306   */\n      tag_266\n      tag_164\n      jump\t// in\n    tag_266:\n        /* \"#utility.yul\":8232:8316   */\n    tag_265:\n        /* \"#utility.yul\":8053:8322   */\n      pop\n        /* \"#utility.yul\":8002:8322   */\n      swap2\n      swap1\n      pop\n      jump\t// out\n        /* \"#utility.yul\":8328:8508   */\n    tag_165:\n        /* \"#utility.yul\":8376:8453   */\n      0x4e487b7100000000000000000000000000000000000000000000000000000000\n        /* \"#utility.yul\":8373:8374   */\n      0x00\n        /* \"#utility.yul\":8366:8454   */\n      mstore\n        /* \"#utility.yul\":8473:8477   */\n      0x11\n        /* \"#utility.yul\":8470:8471   */\n      0x04\n        /* \"#utility.yul\":8463:8478   */\n      mstore\n        /* \"#utility.yul\":8497:8501   */\n      0x24\n        /* \"#utility.yul\":8494:8495   */\n      0x00\n        /* \"#utility.yul\":8487:8502   */\n      revert\n        /* \"#utility.yul\":8514:8708   */\n    tag_45:\n        /* \"#utility.yul\":8554:8558   */\n      0x00\n        /* \"#utility.yul\":8574:8594   */\n      tag_269\n        /* \"#utility.yul\":8592:8593   */\n      dup3\n        /* \"#utility.yul\":8574:8594   */\n      tag_149\n      jump\t// in\n    tag_269:\n        /* \"#utility.yul\":8569:8594   */\n      swap2\n      pop\n        /* \"#utility.yul\":8608:8628   */\n      tag_270\n        /* \"#utility.yul\":8626:8627   */\n      dup4\n        /* \"#utility.yul\":8608:8628   */\n      tag_149\n      jump\t// in\n    tag_270:\n        /* \"#utility.yul\":8603:8628   */\n      swap3\n      pop\n        /* \"#utility.yul\":8652:8653   */\n      dup3\n        /* \"#utility.yul\":8649:8650   */\n      dup3\n        /* \"#utility.yul\":8645:8654   */\n      sub\n        /* \"#utility.yul\":8637:8654   */\n      swap1\n      pop\n        /* \"#utility.yul\":8676:8677   */\n      dup2\n        /* \"#utility.yul\":8670:8674   */\n      dup2\n        /* \"#utility.yul\":8667:8678   */\n      gt\n        /* \"#utility.yul\":8664:8701   */\n      iszero\n      tag_271\n      jumpi\n        /* \"#utility.yul\":8681:8699   */\n      tag_272\n      tag_165\n      jump\t// in\n    tag_272:\n        /* \"#utility.yul\":8664:8701   */\n    tag_271:\n        /* \"#utility.yul\":8514:8708   */\n      swap3\n      swap2\n      pop\n      pop\n      jump\t// out\n        /* \"#utility.yul\":8714:8905   */\n    tag_52:\n        /* \"#utility.yul\":8754:8757   */\n      0x00\n        /* \"#utility.yul\":8773:8793   */\n      tag_274\n        /* \"#utility.yul\":8791:8792   */\n      dup3\n        /* \"#utility.yul\":8773:8793   */\n      tag_149\n      jump\t// in\n    tag_274:\n        /* \"#utility.yul\":8768:8793   */\n      swap2\n      pop\n        /* \"#utility.yul\":8807:8827   */\n      tag_275\n        /* \"#utility.yul\":8825:8826   */\n      dup4\n        /* \"#utility.yul\":8807:8827   */\n      tag_149\n      jump\t// in\n    tag_275:\n        /* \"#utility.yul\":8802:8827   */\n      swap3\n      pop\n        /* \"#utility.yul\":8850:8851   */\n      dup3\n        /* \"#utility.yul\":8847:8848   */\n      dup3\n        /* \"#utility.yul\":8843:8852   */\n      add\n        /* \"#utility.yul\":8836:8852   */\n      swap1\n      pop\n        /* \"#utility.yul\":8871:8874   */\n      dup1\n        /* \"#utility.yul\":8868:8869   */\n      dup3\n        /* \"#utility.yul\":8865:8875   */\n      gt\n        /* \"#utility.yul\":8862:8898   */\n      iszero\n      tag_276\n      jumpi\n        /* \"#utility.yul\":8878:8896   */\n      tag_277\n      tag_165\n      jump\t// in\n    tag_277:\n        /* \"#utility.yul\":8862:8898   */\n    tag_276:\n        /* \"#utility.yul\":8714:8905   */\n      swap3\n      swap2\n      pop\n      pop\n      jump\t// out\n        /* \"#utility.yul\":8911:9091   */\n    tag_55:\n        /* \"#utility.yul\":8959:9036   */\n      0x4e487b7100000000000000000000000000000000000000000000000000000000\n        /* \"#utility.yul\":8956:8957   */\n      0x00\n        /* \"#utility.yul\":8949:9037   */\n      mstore\n        /* \"#utility.yul\":9056:9060   */\n      0x32\n        /* \"#utility.yul\":9053:9054   */\n      0x04\n        /* \"#utility.yul\":9046:9061   */\n      mstore\n        /* \"#utility.yul\":9080:9084   */\n      0x24\n        /* \"#utility.yul\":9077:9078   */\n      0x00\n        /* \"#utility.yul\":9070:9085   */\n      revert\n        /* \"#utility.yul\":9097:9246   */\n    tag_166:\n        /* \"#utility.yul\":9146:9152   */\n      0x00\n        /* \"#utility.yul\":9180:9185   */\n      dup2\n        /* \"#utility.yul\":9174:9186   */\n      sload\n        /* \"#utility.yul\":9164:9186   */\n      swap1\n      pop\n        /* \"#utility.yul\":9206:9239   */\n      tag_280\n        /* \"#utility.yul\":9232:9238   */\n      dup2\n        /* \"#utility.yul\":9206:9239   */\n      tag_35\n      jump\t// in\n    tag_280:\n        /* \"#utility.yul\":9196:9239   */\n      swap1\n      pop\n        /* \"#utility.yul\":9097:9246   */\n      swap2\n      swap1\n      pop\n      jump\t// out\n        /* \"#utility.yul\":9252:9432   */\n    tag_167:\n        /* \"#utility.yul\":9300:9377   */\n      0x4e487b7100000000000000000000000000000000000000000000000000000000\n        /* \"#utility.yul\":9297:9298   */\n      0x00\n        /* \"#utility.yul\":9290:9378   */\n      mstore\n        /* \"#utility.yul\":9397:9401   */\n      0x41\n        /* \"#utility.yul\":9394:9395   */\n      0x04\n        /* \"#utility.yul\":9387:9402   */\n      mstore\n        /* \"#utility.yul\":9421:9425   */\n      0x24\n        /* \"#utility.yul\":9418:9419   */\n      0x00\n        /* \"#utility.yul\":9411:9426   */\n      revert\n        /* \"#utility.yul\":9438:9579   */\n    tag_168:\n        /* \"#utility.yul\":9487:9491   */\n      0x00\n        /* \"#utility.yul\":9510:9513   */\n      dup2\n        /* \"#utility.yul\":9502:9513   */\n      swap1\n      pop\n        /* \"#utility.yul\":9533:9536   */\n      dup2\n        /* \"#utility.yul\":9530:9531   */\n      0x00\n        /* \"#utility.yul\":9523:9537   */\n      mstore\n        /* \"#utility.yul\":9567:9571   */\n      0x20\n        /* \"#utility.yul\":9564:9565   */\n      0x00\n        /* \"#utility.yul\":9554:9572   */\n      keccak256\n        /* \"#utility.yul\":9546:9572   */\n      swap1\n      pop\n        /* \"#utility.yul\":9438:9579   */\n      swap2\n      swap1\n      pop\n      jump\t// out\n        /* \"#utility.yul\":9585:9678   */\n    tag_169:\n        /* \"#utility.yul\":9622:9628   */\n      0x00\n        /* \"#utility.yul\":9669:9671   */\n      0x20\n        /* \"#utility.yul\":9664:9666   */\n      0x1f\n        /* \"#utility.yul\":9657:9662   */\n      dup4\n        /* \"#utility.yul\":9653:9667   */\n      add\n        /* \"#utility.yul\":9649:9672   */\n      div\n        /* \"#utility.yul\":9639:9672   */\n      swap1\n      pop\n        /* \"#utility.yul\":9585:9678   */\n      swap2\n      swap1\n      pop\n      jump\t// out\n        /* \"#utility.yul\":9684:9791   */\n    tag_170:\n        /* \"#utility.yul\":9728:9736   */\n      0x00\n        /* \"#utility.yul\":9778:9783   */\n      dup3\n        /* \"#utility.yul\":9772:9776   */\n      dup3\n        /* \"#utility.yul\":9768:9784   */\n      shl\n        /* \"#utility.yul\":9747:9784   */\n      swap1\n      pop\n        /* \"#utility.yul\":9684:9791   */\n      swap3\n      swap2\n      pop\n      pop\n      jump\t// out\n        /* \"#utility.yul\":9797:10190   */\n    tag_171:\n        /* \"#utility.yul\":9866:9872   */\n      0x00\n        /* \"#utility.yul\":9916:9917   */\n      0x08\n        /* \"#utility.yul\":9904:9914   */\n      dup4\n        /* \"#utility.yul\":9900:9918   */\n      mul\n        /* \"#utility.yul\":9939:10036   */\n      tag_286\n        /* \"#utility.yul\":9969:10035   */\n      0xffffffffffffffffffffffffffffffffffffffffffffffffffffffffffffffff\n        /* \"#utility.yul\":9958:9967   */\n      dup3\n        /* \"#utility.yul\":9939:10036   */\n      tag_170\n      jump\t// in\n    tag_286:\n        /* \"#utility.yul\":10057:10096   */\n      tag_287\n        /* \"#utility.yul\":10087:10095   */\n      dup7\n        /* \"#utility.yul\":10076:10085   */\n      dup4\n        /* \"#utility.yul\":10057:10096   */\n      tag_170\n      jump\t// in\n    tag_287:\n        /* \"#utility.yul\":10045:10096   */\n      swap6\n      pop\n        /* \"#utility.yul\":10129:10133   */\n      dup1\n        /* \"#utility.yul\":10125:10134   */\n      not\n        /* \"#utility.yul\":10118:10123   */\n      dup5\n        /* \"#utility.yul\":10114:10135   */\n      and\n        /* \"#utility.yul\":10105:10135   */\n      swap4\n      pop\n        /* \"#utility.yul\":10178:10182   */\n      dup1\n        /* \"#utility.yul\":10168:10176   */\n      dup7\n        /* \"#utility.yul\":10164:10183   */\n      and\n        /* \"#utility.yul\":10157:10162   */\n      dup5\n        /* \"#utility.yul\":10154:10184   */\n      or\n        /* \"#utility.yul\":10144:10184   */\n      swap3\n      pop\n        /* \"#utility.yul\":9873:10190   */\n      pop\n      pop\n        /* \"#utility.yul\":9797:10190   */\n      swap4\n      swap3\n      pop\n      pop\n      pop\n      jump\t// out\n        /* \"#utility.yul\":10196:10256   */\n    tag_172:\n        /* \"#utility.yul\":10224:10227   */\n      0x00\n        /* \"#utility.yul\":10245:10250   */\n      dup2\n        /* \"#utility.yul\":10238:10250   */\n      swap1\n      pop\n        /* \"#utility.yul\":10196:10256   */\n      swap2\n      swap1\n      pop\n      jump\t// out\n        /* \"#utility.yul\":10262:10404   */\n    tag_173:\n        /* \"#utility.yul\":10312:10321   */\n      0x00\n        /* \"#utility.yul\":10345:10398   */\n      tag_290\n        /* \"#utility.yul\":10363:10397   */\n      tag_291\n        /* \"#utility.yul\":10372:10396   */\n      tag_292\n        /* \"#utility.yul\":10390:10395   */\n      dup5\n        /* \"#utility.yul\":10372:10396   */\n      tag_149\n      jump\t// in\n    tag_292:\n        /* \"#utility.yul\":10363:10397   */\n      tag_172\n      jump\t// in\n    tag_291:\n        /* \"#utility.yul\":10345:10398   */\n      tag_149\n      jump\t// in\n    tag_290:\n        /* \"#utility.yul\":10332:10398   */\n      swap1\n      pop\n        /* \"#utility.yul\":10262:10404   */\n      swap2\n      swap1\n      pop\n      jump\t// out\n        /* \"#utility.yul\":10410:10485   */\n    tag_174:\n        /* \"#utility.yul\":10453:10456   */\n      0x00\n        /* \"#utility.yul\":10474:10479   */\n      dup2\n        /* \"#utility.yul\":10467:10479   */\n      swap1\n      pop\n        /* \"#utility.yul\":10410:10485   */\n      swap2\n      swap1\n      pop\n      jump\t// out\n        /* \"#utility.yul\":10491:10760   */\n    tag_175:\n        /* \"#utility.yul\":10601:10640   */\n      tag_295\n        /* \"#utility.yul\":10632:10639   */\n      dup4\n        /* \"#utility.yul\":10601:10640   */\n      tag_173\n      jump\t// in\n    tag_295:\n        /* \"#utility.yul\":10662:10753   */\n      tag_296\n        /* \"#utility.yul\":10711:10752   */\n      tag_297\n        /* \"#utility.yul\":10735:10751   */\n      dup3\n        /* \"#utility.yul\":10711:10752   */\n      tag_174\n      jump\t// in\n    tag_297:\n        /* \"#utility.yul\":10703:10709   */\n      dup5\n        /* \"#utility.yul\":10696:10700   */\n      dup5\n        /* \"#utility.yul\":10690:10701   */\n      sload\n        /* \"#utility.yul\":10662:10753   */\n      tag_171\n      jump\t// in\n    tag_296:\n        /* \"#utility.yul\":10656:10660   */\n      dup3\n        /* \"#utility.yul\":10649:10754   */\n      sstore\n        /* \"#utility.yul\":10567:10760   */\n      pop\n        /* \"#utility.yul\":10491:10760   */\n      pop\n      pop\n      pop\n      jump\t// out\n        /* \"#utility.yul\":10766:10839   */\n    tag_176:\n        /* \"#utility.yul\":10811:10814   */\n      0x00\n        /* \"#utility.yul\":10766:10839   */\n      swap1\n      jump\t// out\n        /* \"#utility.yul\":10845:11034   */\n    tag_177:\n        /* \"#utility.yul\":10922:10954   */\n      tag_300\n      tag_176\n      jump\t// in\n    tag_300:\n        /* \"#utility.yul\":10963:11028   */\n      tag_301\n        /* \"#utility.yul\":11021:11027   */\n      dup2\n        /* \"#utility.yul\":11013:11019   */\n      dup5\n        /* \"#utility.yul\":11007:11011   */\n      dup5\n        /* \"#utility.yul\":10963:11028   */\n      tag_175\n      jump\t// in\n    tag_301:\n        /* \"#utility.yul\":10898:11034   */\n      pop\n        /* \"#utility.yul\":10845:11034   */\n      pop\n      pop\n      jump\t// out\n        /* \"#utility.yul\":11040:11226   */\n    tag_178:\n        /* \"#utility.yul\":11100:11220   */\n    tag_303:\n        /* \"#utility.yul\":11117:11120   */\n      dup2\n        /* \"#utility.yul\":11110:11115   */\n      dup2\n        /* \"#utility.yul\":11107:11121   */\n      lt\n        /* \"#utility.yul\":11100:11220   */\n      iszero\n      tag_305\n      jumpi\n        /* \"#utility.yul\":11171:11210   */\n      tag_306\n        /* \"#utility.yul\":11208:11209   */\n      0x00\n        /* \"#utility.yul\":11201:11206   */\n      dup3\n        /* \"#utility.yul\":11171:11210   */\n      tag_177\n      jump\t// in\n    tag_306:\n        /* \"#utility.yul\":11144:11145   */\n      0x01\n        /* \"#utility.yul\":11137:11142   */\n      dup2\n        /* \"#utility.yul\":11133:11146   */\n      add\n        /* \"#utility.yul\":11124:11146   */\n      swap1\n      pop\n        /* \"#utility.yul\":11100:11220   */\n      jump(tag_303)\n    tag_305:\n        /* \"#utility.yul\":11040:11226   */\n      pop\n      pop\n      jump\t// out\n        /* \"#utility.yul\":11232:11775   */\n    tag_179:\n        /* \"#utility.yul\":11333:11335   */\n      0x1f\n        /* \"#utility.yul\":11328:11331   */\n      dup3\n        /* \"#utility.yul\":11325:11336   */\n      gt\n        /* \"#utility.yul\":11322:11768   */\n      iszero\n      tag_308\n      jumpi\n        /* \"#utility.yul\":11367:11405   */\n      tag_309\n        /* \"#utility.yul\":11399:11404   */\n      dup2\n        /* \"#utility.yul\":11367:11405   */\n      tag_168\n      jump\t// in\n    tag_309:\n        /* \"#utility.yul\":11451:11480   */\n      tag_310\n        /* \"#utility.yul\":11469:11479   */\n      dup5\n        /* \"#utility.yul\":11451:11480   */\n      tag_169\n      jump\t// in\n    tag_310:\n        /* \"#utility.yul\":11441:11449   */\n      dup2\n        /* \"#utility.yul\":11437:11481   */\n      add\n        /* \"#utility.yul\":11634:11636   */\n      0x20\n        /* \"#utility.yul\":11622:11632   */\n      dup6\n        /* \"#utility.yul\":11619:11637   */\n      lt\n        /* \"#utility.yul\":11616:11665   */\n      iszero\n      tag_311\n      jumpi\n        /* \"#utility.yul\":11655:11663   */\n      dup2\n        /* \"#utility.yul\":11640:11663   */\n      swap1\n      pop\n        /* \"#utility.yul\":11616:11665   */\n    tag_311:\n        /* \"#utility.yul\":11678:11758   */\n      tag_312\n        /* \"#utility.yul\":11734:11756   */\n      tag_313\n        /* \"#utility.yul\":11752:11755   */\n      dup6\n        /* \"#utility.yul\":11734:11756   */\n      tag_169\n      jump\t// in\n    tag_313:\n        /* \"#utility.yul\":11724:11732   */\n      dup4\n        /* \"#utility.yul\":11720:11757   */\n      add\n        /* \"#utility.yul\":11707:11718   */\n      dup3\n        /* \"#utility.yul\":11678:11758   */\n      tag_178\n      jump\t// in\n    tag_312:\n        /* \"#utility.yul\":11337:11768   */\n      pop\n      pop\n        /* \"#utility.yul\":11322:11768   */\n    tag_308:\n        /* \"#utility.yul\":11232:11775   */\n      pop\n      pop\n      pop\n      jump\t// out\n        /* \"#utility.yul\":11781:11898   */\n    tag_180:\n        /* \"#utility.yul\":11835:11843   */\n      0x00\n        /* \"#utility.yul\":11885:11890   */\n      dup3\n        /* \"#utility.yul\":11879:11883   */\n      dup3\n        /* \"#utility.yul\":11875:11891   */\n      shr\n        /* \"#utility.yul\":11854:11891   */\n      swap1\n      pop\n        /* \"#utility.yul\":11781:11898   */\n      swap3\n      swap2\n      pop\n      pop\n      jump\t// out\n        /* \"#utility.yul\":11904:12073   */\n    tag_181:\n        /* \"#utility.yul\":11948:11954   */\n      0x00\n        /* \"#utility.yul\":11981:12032   */\n      tag_316\n        /* \"#utility.yul\":12029:12030   */\n      0x00\n        /* \"#utility.yul\":12025:12031   */\n      not\n        /* \"#utility.yul\":12017:12022   */\n      dup5\n        /* \"#utility.yul\":12014:12015   */\n      0x08\n        /* \"#utility.yul\":12010:12023   */\n      mul\n        /* \"#utility.yul\":11981:12032   */\n      tag_180\n      jump\t// in\n    tag_316:\n        /* \"#utility.yul\":11977:12033   */\n      not\n        /* \"#utility.yul\":12062:12066   */\n      dup1\n        /* \"#utility.yul\":12056:12060   */\n      dup4\n        /* \"#utility.yul\":12052:12067   */\n      and\n        /* \"#utility.yul\":12042:12067   */\n      swap2\n      pop\n        /* \"#utility.yul\":11955:12073   */\n      pop\n        /* \"#utility.yul\":11904:12073   */\n      swap3\n      swap2\n      pop\n      pop\n      jump\t// out\n        /* \"#utility.yul\":12078:12373   */\n    tag_182:\n        /* \"#utility.yul\":12154:12158   */\n      0x00\n        /* \"#utility.yul\":12300:12329   */\n      tag_318\n        /* \"#utility.yul\":12325:12328   */\n      dup4\n        /* \"#utility.yul\":12319:12323   */\n      dup4\n        /* \"#utility.yul\":12300:12329   */\n      tag_181\n      jump\t// in\n    tag_318:\n        /* \"#utility.yul\":12292:12329   */\n      swap2\n      pop\n        /* \"#utility.yul\":12362:12365   */\n      dup3\n        /* \"#utility.yul\":12359:12360   */\n      0x02\n        /* \"#utility.yul\":12355:12366   */\n      mul\n        /* \"#utility.yul\":12349:12353   */\n      dup3\n        /* \"#utility.yul\":12346:12367   */\n      or\n        /* \"#utility.yul\":12338:12367   */\n      swap1\n      pop\n        /* \"#utility.yul\":12078:12373   */\n      swap3\n      swap2\n      pop\n      pop\n      jump\t// out\n        /* \"#utility.yul\":12378:13829   */\n    tag_77:\n        /* \"#utility.yul\":12489:12492   */\n      dup2\n        /* \"#utility.yul\":12483:12487   */\n      dup2\n        /* \"#utility.yul\":12480:12493   */\n      sub\n        /* \"#utility.yul\":12477:12503   */\n      tag_320\n      jumpi\n        /* \"#utility.yul\":12496:12501   */\n      pop\n      pop\n      jump(tag_319)\n        /* \"#utility.yul\":12477:12503   */\n    tag_320:\n        /* \"#utility.yul\":12527:12561   */\n      tag_321\n        /* \"#utility.yul\":12557:12560   */\n      dup3\n        /* \"#utility.yul\":12527:12561   */\n      tag_166\n      jump\t// in\n    tag_321:\n        /* \"#utility.yul\":12626:12644   */\n      0xffffffffffffffff\n        /* \"#utility.yul\":12618:12624   */\n      dup2\n        /* \"#utility.yul\":12615:12645   */\n      gt\n        /* \"#utility.yul\":12612:12668   */\n      iszero\n      tag_322\n      jumpi\n        /* \"#utility.yul\":12648:12666   */\n      tag_323\n      tag_167\n      jump\t// in\n    tag_323:\n        /* \"#utility.yul\":12612:12668   */\n    tag_322:\n        /* \"#utility.yul\":12692:12730   */\n      tag_324\n        /* \"#utility.yul\":12724:12728   */\n      dup3\n        /* \"#utility.yul\":12718:12729   */\n      sload\n        /* \"#utility.yul\":12692:12730   */\n      tag_35\n      jump\t// in\n    tag_324:\n        /* \"#utility.yul\":12777:12844   */\n      tag_325\n        /* \"#utility.yul\":12837:12843   */\n      dup3\n        /* \"#utility.yul\":12829:12835   */\n      dup3\n        /* \"#utility.yul\":12823:12827   */\n      dup6\n        /* \"#utility.yul\":12777:12844   */\n      tag_179\n      jump\t// in\n    tag_325:\n        /* \"#utility.yul\":12871:12872   */\n      0x00\n        /* \"#utility.yul\":12900:12902   */\n      0x1f\n        /* \"#utility.yul\":12892:12898   */\n      dup4\n        /* \"#utility.yul\":12889:12903   */\n      gt\n        /* \"#utility.yul\":12917:12918   */\n      0x01\n        /* \"#utility.yul\":12912:13584   */\n      dup2\n      eq\n      tag_327\n      jumpi\n        /* \"#utility.yul\":13628:13629   */\n      0x00\n        /* \"#utility.yul\":13645:13651   */\n      dup5\n        /* \"#utility.yul\":13642:13719   */\n      iszero\n      tag_328\n      jumpi\n        /* \"#utility.yul\":13694:13703   */\n      dup3\n        /* \"#utility.yul\":13689:13692   */\n      dup8\n        /* \"#utility.yul\":13685:13704   */\n      add\n        /* \"#utility.yul\":13679:13705   */\n      sload\n        /* \"#utility.yul\":13670:13705   */\n      swap1\n      pop\n        /* \"#utility.yul\":13642:13719   */\n    tag_328:\n        /* \"#utility.yul\":13745:13812   */\n      tag_329\n        /* \"#utility.yul\":13805:13811   */\n      dup6\n        /* \"#utility.yul\":13798:13803   */\n      dup3\n        /* \"#utility.yul\":13745:13812   */\n      tag_182\n      jump\t// in\n    tag_329:\n        /* \"#utility.yul\":13739:13743   */\n      dup7\n        /* \"#utility.yul\":13732:13813   */\n      sstore\n        /* \"#utility.yul\":13601:13823   */\n      pop\n        /* \"#utility.yul\":12882:13823   */\n      jump(tag_326)\n        /* \"#utility.yul\":12912:13584   */\n    tag_327:\n        /* \"#utility.yul\":12964:12968   */\n      0x1f\n        /* \"#utility.yul\":12960:12969   */\n      not\n        /* \"#utility.yul\":12952:12958   */\n      dup5\n        /* \"#utility.yul\":12948:12970   */\n      and\n        /* \"#utility.yul\":12990:13026   */\n      tag_330\n        /* \"#utility.yul\":13022:13025   */\n      dup8\n        /* \"#utility.yul\":12990:13026   */\n      tag_168\n      jump\t// in\n    tag_330:\n        /* \"#utility.yul\":12983:13026   */\n      swap7\n      pop\n        /* \"#utility.yul\":13053:13090   */\n      tag_331\n        /* \"#utility.yul\":13085:13089   */\n      dup7\n        /* \"#utility.yul\":13053:13090   */\n      tag_168\n      jump\t// in\n    tag_331:\n        /* \"#utility.yul\":13112:13113   */\n      0x00\n        /* \"#utility.yul\":13126:13333   */\n    tag_332:\n        /* \"#utility.yul\":13140:13147   */\n      dup3\n        /* \"#utility.yul\":13137:13138   */\n      dup2\n        /* \"#utility.yul\":13134:13148   */\n      lt\n        /* \"#utility.yul\":13126:13333   */\n      iszero\n      tag_334\n      jumpi\n        /* \"#utility.yul\":13219:13228   */\n      dup5\n        /* \"#utility.yul\":13214:13217   */\n      dup10\n        /* \"#utility.yul\":13210:13229   */\n      add\n        /* \"#utility.yul\":13204:13230   */\n      sload\n        /* \"#utility.yul\":13196:13202   */\n      dup3\n        /* \"#utility.yul\":13189:13231   */\n      sstore\n        /* \"#utility.yul\":13270:13271   */\n      0x01\n        /* \"#utility.yul\":13262:13268   */\n      dup3\n        /* \"#utility.yul\":13258:13272   */\n      add\n        /* \"#utility.yul\":13248:13272   */\n      swap2\n      pop\n        /* \"#utility.yul\":13317:13318   */\n      0x01\n        /* \"#utility.yul\":13306:13315   */\n      dup6\n        /* \"#utility.yul\":13302:13319   */\n      add\n        /* \"#utility.yul\":13289:13319   */\n      swap5\n      pop\n        /* \"#utility.yul\":13163:13167   */\n      0x20\n        /* \"#utility.yul\":13160:13161   */\n      dup2\n        /* \"#utility.yul\":13156:13168   */\n      add\n        /* \"#utility.yul\":13151:13168   */\n      swap1\n      pop\n        /* \"#utility.yul\":13126:13333   */\n      jump(tag_332)\n    tag_334:\n        /* \"#utility.yul\":13361:13367   */\n      dup7\n        /* \"#utility.yul\":13352:13359   */\n      dup4\n        /* \"#utility.yul\":13349:13368   */\n      lt\n        /* \"#utility.yul\":13346:13525   */\n      iszero\n      tag_335\n      jumpi\n        /* \"#utility.yul\":13419:13428   */\n      dup5\n        /* \"#utility.yul\":13414:13417   */\n      dup10\n        /* \"#utility.yul\":13410:13429   */\n      add\n        /* \"#utility.yul\":13404:13430   */\n      sload\n        /* \"#utility.yul\":13462:13510   */\n      tag_336\n        /* \"#utility.yul\":13504:13508   */\n      0x1f\n        /* \"#utility.yul\":13496:13502   */\n      dup10\n        /* \"#utility.yul\":13492:13509   */\n      and\n        /* \"#utility.yul\":13481:13490   */\n      dup3\n        /* \"#utility.yul\":13462:13510   */\n      tag_181\n      jump\t// in\n    tag_336:\n        /* \"#utility.yul\":13454:13460   */\n      dup4\n        /* \"#utility.yul\":13447:13511   */\n      sstore\n        /* \"#utility.yul\":13369:13525   */\n      pop\n        /* \"#utility.yul\":13346:13525   */\n    tag_335:\n        /* \"#utility.yul\":13571:13572   */\n      0x01\n        /* \"#utility.yul\":13567:13568   */\n      0x02\n        /* \"#utility.yul\":13559:13565   */\n      dup9\n        /* \"#utility.yul\":13555:13569   */\n      mul\n        /* \"#utility.yul\":13551:13573   */\n      add\n        /* \"#utility.yul\":13545:13549   */\n      dup9\n        /* \"#utility.yul\":13538:13574   */\n      sstore\n        /* \"#utility.yul\":12919:13584   */\n      pop\n      pop\n      pop\n        /* \"#utility.yul\":12882:13823   */\n    tag_326:\n      pop\n        /* \"#utility.yul\":12467:13829   */\n      pop\n      pop\n      pop\n        /* \"#utility.yul\":12378:13829   */\n      pop\n      pop\n    tag_319:\n      jump\t// out\n        /* \"#utility.yul\":13835:15230   */\n    tag_83:\n        /* \"#utility.yul\":13952:13989   */\n      tag_338\n        /* \"#utility.yul\":13985:13988   */\n      dup3\n        /* \"#utility.yul\":13952:13989   */\n      tag_142\n      jump\t// in\n    tag_338:\n        /* \"#utility.yul\":14054:14072   */\n      0xffffffffffffffff\n        /* \"#utility.yul\":14046:14052   */\n      dup2\n        /* \"#utility.yul\":14043:14073   */\n      gt\n        /* \"#utility.yul\":14040:14096   */\n      iszero\n      tag_339\n      jumpi\n        /* \"#utility.yul\":14076:14094   */\n      tag_340\n      tag_167\n      jump\t// in\n    tag_340:\n        /* \"#utility.yul\":14040:14096   */\n    tag_339:\n        /* \"#utility.yul\":14120:14158   */\n      tag_341\n        /* \"#utility.yul\":14152:14156   */\n      dup3\n        /* \"#utility.yul\":14146:14157   */\n      sload\n        /* \"#utility.yul\":14120:14158   */\n      tag_35\n      jump\t// in\n    tag_341:\n        /* \"#utility.yul\":14205:14272   */\n      tag_342\n        /* \"#utility.yul\":14265:14271   */\n      dup3\n        /* \"#utility.yul\":14257:14263   */\n      dup3\n        /* \"#utility.yul\":14251:14255   */\n      dup6\n        /* \"#utility.yul\":14205:14272   */\n      tag_179\n      jump\t// in\n    tag_342:\n        /* \"#utility.yul\":14299:14300   */\n      0x00\n        /* \"#utility.yul\":14323:14327   */\n      0x20\n        /* \"#utility.yul\":14310:14327   */\n      swap1\n      pop\n        /* \"#utility.yul\":14355:14357   */\n      0x1f\n        /* \"#utility.yul\":14347:14353   */\n      dup4\n        /* \"#utility.yul\":14344:14358   */\n      gt\n        /* \"#utility.yul\":14372:14373   */\n      0x01\n        /* \"#utility.yul\":14367:14985   */\n      dup2\n      eq\n      tag_344\n      jumpi\n        /* \"#utility.yul\":15029:15030   */\n      0x00\n        /* \"#utility.yul\":15046:15052   */\n      dup5\n        /* \"#utility.yul\":15043:15120   */\n      iszero\n      tag_345\n      jumpi\n        /* \"#utility.yul\":15095:15104   */\n      dup3\n        /* \"#utility.yul\":15090:15093   */\n      dup8\n        /* \"#utility.yul\":15086:15105   */\n      add\n        /* \"#utility.yul\":15080:15106   */\n      mload\n        /* \"#utility.yul\":15071:15106   */\n      swap1\n      pop\n        /* \"#utility.yul\":15043:15120   */\n    tag_345:\n        /* \"#utility.yul\":15146:15213   */\n      tag_346\n        /* \"#utility.yul\":15206:15212   */\n      dup6\n        /* \"#utility.yul\":15199:15204   */\n      dup3\n        /* \"#utility.yul\":15146:15213   */\n      tag_182\n      jump\t// in\n    tag_346:\n        /* \"#utility.yul\":15140:15144   */\n      dup7\n        /* \"#utility.yul\":15133:15214   */\n      sstore\n        /* \"#utility.yul\":15002:15224   */\n      pop\n        /* \"#utility.yul\":14337:15224   */\n      jump(tag_343)\n        /* \"#utility.yul\":14367:14985   */\n    tag_344:\n        /* \"#utility.yul\":14419:14423   */\n      0x1f\n        /* \"#utility.yul\":14415:14424   */\n      not\n        /* \"#utility.yul\":14407:14413   */\n      dup5\n        /* \"#utility.yul\":14403:14425   */\n      and\n        /* \"#utility.yul\":14453:14490   */\n      tag_347\n        /* \"#utility.yul\":14485:14489   */\n      dup7\n        /* \"#utility.yul\":14453:14490   */\n      tag_168\n      jump\t// in\n    tag_347:\n        /* \"#utility.yul\":14512:14513   */\n      0x00\n        /* \"#utility.yul\":14526:14734   */\n    tag_348:\n        /* \"#utility.yul\":14540:14547   */\n      dup3\n        /* \"#utility.yul\":14537:14538   */\n      dup2\n        /* \"#utility.yul\":14534:14548   */\n      lt\n        /* \"#utility.yul\":14526:14734   */\n      iszero\n      tag_350\n      jumpi\n        /* \"#utility.yul\":14619:14628   */\n      dup5\n        /* \"#utility.yul\":14614:14617   */\n      dup10\n        /* \"#utility.yul\":14610:14629   */\n      add\n        /* \"#utility.yul\":14604:14630   */\n      mload\n        /* \"#utility.yul\":14596:14602   */\n      dup3\n        /* \"#utility.yul\":14589:14631   */\n      sstore\n        /* \"#utility.yul\":14670:14671   */\n      0x01\n        /* \"#utility.yul\":14662:14668   */\n      dup3\n        /* \"#utility.yul\":14658:14672   */\n      add\n        /* \"#utility.yul\":14648:14672   */\n      swap2\n      pop\n        /* \"#utility.yul\":14717:14719   */\n      0x20\n        /* \"#utility.yul\":14706:14715   */\n      dup6\n        /* \"#utility.yul\":14702:14720   */\n      add\n        /* \"#utility.yul\":14689:14720   */\n      swap5\n      pop\n        /* \"#utility.yul\":14563:14567   */\n      0x20\n        /* \"#utility.yul\":14560:14561   */\n      dup2\n        /* \"#utility.yul\":14556:14568   */\n      add\n        /* \"#utility.yul\":14551:14568   */\n      swap1\n      pop\n        /* \"#utility.yul\":14526:14734   */\n      jump(tag_348)\n    tag_350:\n        /* \"#utility.yul\":14762:14768   */\n      dup7\n        /* \"#utility.yul\":14753:14760   */\n      dup4\n        /* \"#utility.yul\":14750:14769   */\n      lt\n        /* \"#utility.yul\":14747:14926   */\n      iszero\n      tag_351\n      jumpi\n        /* \"#utility.yul\":14820:14829   */\n      dup5\n        /* \"#utility.yul\":14815:14818   */\n      dup10\n        /* \"#utility.yul\":14811:14830   */\n      add\n        /* \"#utility.yul\":14805:14831   */\n      mload\n        /* \"#utility.yul\":14863:14911   */\n      tag_352\n        /* \"#utility.yul\":14905:14909   */\n      0x1f\n        /* \"#utility.yul\":14897:14903   */\n      dup10\n        /* \"#utility.yul\":14893:14910   */\n      and\n        /* \"#utility.yul\":14882:14891   */\n      dup3\n        /* \"#utility.yul\":14863:14911   */\n      tag_181\n      jump\t// in\n    tag_352:\n        /* \"#utility.yul\":14855:14861   */\n      dup4\n        /* \"#utility.yul\":14848:14912   */\n      sstore\n        /* \"#utility.yul\":14770:14926   */\n      pop\n        /* \"#utility.yul\":14747:14926   */\n    tag_351:\n        /* \"#utility.yul\":14972:14973   */\n      0x01\n        /* \"#utility.yul\":14968:14969   */\n      0x02\n        /* \"#utility.yul\":14960:14966   */\n      dup9\n        /* \"#utility.yul\":14956:14970   */\n      mul\n        /* \"#utility.yul\":14952:14974   */\n      add\n        /* \"#utility.yul\":14946:14950   */\n      dup9\n        /* \"#utility.yul\":14939:14975   */\n      sstore\n        /* \"#utility.yul\":14374:14985   */\n      pop\n      pop\n      pop\n        /* \"#utility.yul\":14337:15224   */\n    tag_343:\n      pop\n        /* \"#utility.yul\":13927:15230   */\n      pop\n      pop\n      pop\n        /* \"#utility.yul\":13835:15230   */\n      pop\n      pop\n      jump\t// out\n        /* \"#utility.yul\":15236:15405   */\n    tag_183:\n        /* \"#utility.yul\":15320:15331   */\n      0x00\n        /* \"#utility.yul\":15354:15360   */\n      dup3\n        /* \"#utility.yul\":15349:15352   */\n      dup3\n        /* \"#utility.yul\":15342:15361   */\n      mstore\n        /* \"#utility.yul\":15394:15398   */\n      0x20\n        /* \"#utility.yul\":15389:15392   */\n      dup3\n        /* \"#utility.yul\":15385:15399   */\n      add\n        /* \"#utility.yul\":15370:15399   */\n      swap1\n      pop\n        /* \"#utility.yul\":15236:15405   */\n      swap3\n      swap2\n      pop\n      pop\n      jump\t// out\n        /* \"#utility.yul\":15411:15643   */\n    tag_184:\n        /* \"#utility.yul\":15551:15585   */\n      0x496e76616c6964207072696f726974792e204974206d75737420626520626574\n        /* \"#utility.yul\":15547:15548   */\n      0x00\n        /* \"#utility.yul\":15539:15545   */\n      dup3\n        /* \"#utility.yul\":15535:15549   */\n      add\n        /* \"#utility.yul\":15528:15586   */\n      mstore\n        /* \"#utility.yul\":15620:15635   */\n      0x7765656e203120616e6420332e00000000000000000000000000000000000000\n        /* \"#utility.yul\":15615:15617   */\n      0x20\n        /* \"#utility.yul\":15607:15613   */\n      dup3\n        /* \"#utility.yul\":15603:15618   */\n      add\n        /* \"#utility.yul\":15596:15636   */\n      mstore\n        /* \"#utility.yul\":15411:15643   */\n      pop\n      jump\t// out\n        /* \"#utility.yul\":15649:16015   */\n    tag_185:\n        /* \"#utility.yul\":15791:15794   */\n      0x00\n        /* \"#utility.yul\":15812:15879   */\n      tag_356\n        /* \"#utility.yul\":15876:15878   */\n      0x2d\n        /* \"#utility.yul\":15871:15874   */\n      dup4\n        /* \"#utility.yul\":15812:15879   */\n      tag_183\n      jump\t// in\n    tag_356:\n        /* \"#utility.yul\":15805:15879   */\n      swap2\n      pop\n        /* \"#utility.yul\":15888:15981   */\n      tag_357\n        /* \"#utility.yul\":15977:15980   */\n      dup3\n        /* \"#utility.yul\":15888:15981   */\n      tag_184\n      jump\t// in\n    tag_357:\n        /* \"#utility.yul\":16006:16008   */\n      0x40\n        /* \"#utility.yul\":16001:16004   */\n      dup3\n        /* \"#utility.yul\":15997:16009   */\n      add\n        /* \"#utility.yul\":15990:16009   */\n      swap1\n      pop\n        /* \"#utility.yul\":15649:16015   */\n      swap2\n      swap1\n      pop\n      jump\t// out\n        /* \"#utility.yul\":16021:16440   */\n    tag_91:\n        /* \"#utility.yul\":16187:16191   */\n      0x00\n        /* \"#utility.yul\":16225:16227   */\n      0x20\n        /* \"#utility.yul\":16214:16223   */\n      dup3\n        /* \"#utility.yul\":16210:16228   */\n      add\n        /* \"#utility.yul\":16202:16228   */\n      swap1\n      pop\n        /* \"#utility.yul\":16274:16283   */\n      dup2\n        /* \"#utility.yul\":16268:16272   */\n      dup2\n        /* \"#utility.yul\":16264:16284   */\n      sub\n        /* \"#utility.yul\":16260:16261   */\n      0x00\n        /* \"#utility.yul\":16249:16258   */\n      dup4\n        /* \"#utility.yul\":16245:16262   */\n      add\n        /* \"#utility.yul\":16238:16285   */\n      mstore\n        /* \"#utility.yul\":16302:16433   */\n      tag_359\n        /* \"#utility.yul\":16428:16432   */\n      dup2\n        /* \"#utility.yul\":16302:16433   */\n      tag_185\n      jump\t// in\n    tag_359:\n        /* \"#utility.yul\":16294:16433   */\n      swap1\n      pop\n        /* \"#utility.yul\":16021:16440   */\n      swap2\n      swap1\n      pop\n      jump\t// out\n        /* \"#utility.yul\":16446:16626   */\n    tag_112:\n        /* \"#utility.yul\":16494:16571   */\n      0x4e487b7100000000000000000000000000000000000000000000000000000000\n        /* \"#utility.yul\":16491:16492   */\n      0x00\n        /* \"#utility.yul\":16484:16572   */\n      mstore\n        /* \"#utility.yul\":16591:16595   */\n      0x31\n        /* \"#utility.yul\":16588:16589   */\n      0x04\n        /* \"#utility.yul\":16581:16596   */\n      mstore\n        /* \"#utility.yul\":16615:16619   */\n      0x24\n        /* \"#utility.yul\":16612:16613   */\n      0x00\n        /* \"#utility.yul\":16605:16620   */\n      revert\n        /* \"#utility.yul\":16632:16802   */\n    tag_186:\n        /* \"#utility.yul\":16772:16794   */\n      0x5461736b20646f6573206e6f742065786973742e000000000000000000000000\n        /* \"#utility.yul\":16768:16769   */\n      0x00\n        /* \"#utility.yul\":16760:16766   */\n      dup3\n        /* \"#utility.yul\":16756:16770   */\n      add\n        /* \"#utility.yul\":16749:16795   */\n      mstore\n        /* \"#utility.yul\":16632:16802   */\n      pop\n      jump\t// out\n        /* \"#utility.yul\":16808:17174   */\n    tag_187:\n        /* \"#utility.yul\":16950:16953   */\n      0x00\n        /* \"#utility.yul\":16971:17038   */\n      tag_363\n        /* \"#utility.yul\":17035:17037   */\n      0x14\n        /* \"#utility.yul\":17030:17033   */\n      dup4\n        /* \"#utility.yul\":16971:17038   */\n      tag_183\n      jump\t// in\n    tag_363:\n        /* \"#utility.yul\":16964:17038   */\n      swap2\n      pop\n        /* \"#utility.yul\":17047:17140   */\n      tag_364\n        /* \"#utility.yul\":17136:17139   */\n      dup3\n        /* \"#utility.yul\":17047:17140   */\n      tag_186\n      jump\t// in\n    tag_364:\n        /* \"#utility.yul\":17165:17167   */\n      0x20\n        /* \"#utility.yul\":17160:17163   */\n      dup3\n        /* \"#utility.yul\":17156:17168   */\n      add\n        /* \"#utility.yul\":17149:17168   */\n      swap1\n      pop\n        /* \"#utility.yul\":16808:17174   */\n      swap2\n      swap1\n      pop\n      jump\t// out\n        /* \"#utility.yul\":17180:17599   */\n    tag_118:\n        /* \"#utility.yul\":17346:17350   */\n      0x00\n        /* \"#utility.yul\":17384:17386   */\n      0x20\n        /* \"#utility.yul\":17373:17382   */\n      dup3\n        /* \"#utility.yul\":17369:17387   */\n      add\n        /* \"#utility.yul\":17361:17387   */\n      swap1\n      pop\n        /* \"#utility.yul\":17433:17442   */\n      dup2\n        /* \"#utility.yul\":17427:17431   */\n      dup2\n        /* \"#utility.yul\":17423:17443   */\n      sub\n        /* \"#utility.yul\":17419:17420   */\n      0x00\n        /* \"#utility.yul\":17408:17417   */\n      dup4\n        /* \"#utility.yul\":17404:17421   */\n      add\n        /* \"#utility.yul\":17397:17444   */\n      mstore\n        /* \"#utility.yul\":17461:17592   */\n      tag_366\n        /* \"#utility.yul\":17587:17591   */\n      dup2\n        /* \"#utility.yul\":17461:17592   */\n      tag_187\n      jump\t// in\n    tag_366:\n        /* \"#utility.yul\":17453:17592   */\n      swap1\n      pop\n        /* \"#utility.yul\":17180:17599   */\n      swap2\n      swap1\n      pop\n      jump\t// out\n        /* \"#utility.yul\":17605:17702   */\n    tag_188:\n        /* \"#utility.yul\":17664:17670   */\n      0x00\n        /* \"#utility.yul\":17692:17695   */\n      dup3\n        /* \"#utility.yul\":17682:17695   */\n      swap1\n      pop\n        /* \"#utility.yul\":17605:17702   */\n      swap3\n      swap2\n      pop\n      pop\n      jump\t// out\n        /* \"#utility.yul\":17708:19111   */\n    tag_126:\n        /* \"#utility.yul\":17832:17876   */\n      tag_369\n        /* \"#utility.yul\":17872:17875   */\n      dup4\n        /* \"#utility.yul\":17867:17870   */\n      dup4\n        /* \"#utility.yul\":17832:17876   */\n      tag_188\n      jump\t// in\n    tag_369:\n        /* \"#utility.yul\":17941:17959   */\n      0xffffffffffffffff\n        /* \"#utility.yul\":17933:17939   */\n      dup2\n        /* \"#utility.yul\":17930:17960   */\n      gt\n        /* \"#utility.yul\":17927:17983   */\n      iszero\n      tag_370\n      jumpi\n        /* \"#utility.yul\":17963:17981   */\n      tag_371\n      tag_167\n      jump\t// in\n    tag_371:\n        /* \"#utility.yul\":17927:17983   */\n    tag_370:\n        /* \"#utility.yul\":18007:18045   */\n      tag_372\n        /* \"#utility.yul\":18039:18043   */\n      dup3\n        /* \"#utility.yul\":18033:18044   */\n      sload\n        /* \"#utility.yul\":18007:18045   */\n      tag_35\n      jump\t// in\n    tag_372:\n        /* \"#utility.yul\":18092:18159   */\n      tag_373\n        /* \"#utility.yul\":18152:18158   */\n      dup3\n        /* \"#utility.yul\":18144:18150   */\n      dup3\n        /* \"#utility.yul\":18138:18142   */\n      dup6\n        /* \"#utility.yul\":18092:18159   */\n      tag_179\n      jump\t// in\n    tag_373:\n        /* \"#utility.yul\":18186:18187   */\n      0x00\n        /* \"#utility.yul\":18215:18217   */\n      0x1f\n        /* \"#utility.yul\":18207:18213   */\n      dup4\n        /* \"#utility.yul\":18204:18218   */\n      gt\n        /* \"#utility.yul\":18232:18233   */\n      0x01\n        /* \"#utility.yul\":18227:18859   */\n      dup2\n      eq\n      tag_375\n      jumpi\n        /* \"#utility.yul\":18903:18904   */\n      0x00\n        /* \"#utility.yul\":18920:18926   */\n      dup5\n        /* \"#utility.yul\":18917:19001   */\n      iszero\n      tag_376\n      jumpi\n        /* \"#utility.yul\":18976:18985   */\n      dup3\n        /* \"#utility.yul\":18971:18974   */\n      dup8\n        /* \"#utility.yul\":18967:18986   */\n      add\n        /* \"#utility.yul\":18954:18987   */\n      calldataload\n        /* \"#utility.yul\":18945:18987   */\n      swap1\n      pop\n        /* \"#utility.yul\":18917:19001   */\n    tag_376:\n        /* \"#utility.yul\":19027:19094   */\n      tag_377\n        /* \"#utility.yul\":19087:19093   */\n      dup6\n        /* \"#utility.yul\":19080:19085   */\n      dup3\n        /* \"#utility.yul\":19027:19094   */\n      tag_182\n      jump\t// in\n    tag_377:\n        /* \"#utility.yul\":19021:19025   */\n      dup7\n        /* \"#utility.yul\":19014:19095   */\n      sstore\n        /* \"#utility.yul\":18876:19105   */\n      pop\n        /* \"#utility.yul\":18197:19105   */\n      jump(tag_374)\n        /* \"#utility.yul\":18227:18859   */\n    tag_375:\n        /* \"#utility.yul\":18279:18283   */\n      0x1f\n        /* \"#utility.yul\":18275:18284   */\n      not\n        /* \"#utility.yul\":18267:18273   */\n      dup5\n        /* \"#utility.yul\":18263:18285   */\n      and\n        /* \"#utility.yul\":18313:18350   */\n      tag_378\n        /* \"#utility.yul\":18345:18349   */\n      dup7\n        /* \"#utility.yul\":18313:18350   */\n      tag_168\n      jump\t// in\n    tag_378:\n        /* \"#utility.yul\":18372:18373   */\n      0x00\n        /* \"#utility.yul\":18386:18601   */\n    tag_379:\n        /* \"#utility.yul\":18400:18407   */\n      dup3\n        /* \"#utility.yul\":18397:18398   */\n      dup2\n        /* \"#utility.yul\":18394:18408   */\n      lt\n        /* \"#utility.yul\":18386:18601   */\n      iszero\n      tag_381\n      jumpi\n        /* \"#utility.yul\":18486:18495   */\n      dup5\n        /* \"#utility.yul\":18481:18484   */\n      dup10\n        /* \"#utility.yul\":18477:18496   */\n      add\n        /* \"#utility.yul\":18464:18497   */\n      calldataload\n        /* \"#utility.yul\":18456:18462   */\n      dup3\n        /* \"#utility.yul\":18449:18498   */\n      sstore\n        /* \"#utility.yul\":18537:18538   */\n      0x01\n        /* \"#utility.yul\":18529:18535   */\n      dup3\n        /* \"#utility.yul\":18525:18539   */\n      add\n        /* \"#utility.yul\":18515:18539   */\n      swap2\n      pop\n        /* \"#utility.yul\":18584:18586   */\n      0x20\n        /* \"#utility.yul\":18573:18582   */\n      dup6\n        /* \"#utility.yul\":18569:18587   */\n      add\n        /* \"#utility.yul\":18556:18587   */\n      swap5\n      pop\n        /* \"#utility.yul\":18423:18427   */\n      0x20\n        /* \"#utility.yul\":18420:18421   */\n      dup2\n        /* \"#utility.yul\":18416:18428   */\n      add\n        /* \"#utility.yul\":18411:18428   */\n      swap1\n      pop\n        /* \"#utility.yul\":18386:18601   */\n      jump(tag_379)\n    tag_381:\n        /* \"#utility.yul\":18629:18635   */\n      dup7\n        /* \"#utility.yul\":18620:18627   */\n      dup4\n        /* \"#utility.yul\":18617:18636   */\n      lt\n        /* \"#utility.yul\":18614:18800   */\n      iszero\n      tag_382\n      jumpi\n        /* \"#utility.yul\":18694:18703   */\n      dup5\n        /* \"#utility.yul\":18689:18692   */\n      dup10\n        /* \"#utility.yul\":18685:18704   */\n      add\n        /* \"#utility.yul\":18672:18705   */\n      calldataload\n        /* \"#utility.yul\":18737:18785   */\n      tag_383\n        /* \"#utility.yul\":18779:18783   */\n      0x1f\n        /* \"#utility.yul\":18771:18777   */\n      dup10\n        /* \"#utility.yul\":18767:18784   */\n      and\n        /* \"#utility.yul\":18756:18765   */\n      dup3\n        /* \"#utility.yul\":18737:18785   */\n      tag_181\n      jump\t// in\n    tag_383:\n        /* \"#utility.yul\":18729:18735   */\n      dup4\n        /* \"#utility.yul\":18722:18786   */\n      sstore\n        /* \"#utility.yul\":18637:18800   */\n      pop\n        /* \"#utility.yul\":18614:18800   */\n    tag_382:\n        /* \"#utility.yul\":18846:18847   */\n      0x01\n        /* \"#utility.yul\":18842:18843   */\n      0x02\n        /* \"#utility.yul\":18834:18840   */\n      dup9\n        /* \"#utility.yul\":18830:18844   */\n      mul\n        /* \"#utility.yul\":18826:18848   */\n      add\n        /* \"#utility.yul\":18820:18824   */\n      dup9\n        /* \"#utility.yul\":18813:18849   */\n      sstore\n        /* \"#utility.yul\":18234:18859   */\n      pop\n      pop\n      pop\n        /* \"#utility.yul\":18197:19105   */\n    tag_374:\n      pop\n        /* \"#utility.yul\":17807:19111   */\n      pop\n      pop\n      pop\n        /* \"#utility.yul\":17708:19111   */\n      pop\n      pop\n      pop\n      jump\t// out\n\n    auxdata: 0xa2646970667358221220596a73e84f45123e25ebb90f8f8d49086a52d760becae739b2bfae5fd486469064736f6c634300081a0033\n}\n",
				"bytecode": {
					"linkReferences": {},
					"object": "6080604052348015600e575f80fd5b506112808061001c5f395ff3fe608060405234801561000f575f80fd5b5060043610610060575f3560e01c806304a87e3814610064578063163aa1c2146100825780633143d0821461008c578063a91c55f3146100a8578063c3084117146100c4578063cb7bd995146100e0575b5f80fd5b61006c6100fc565b60405161007991906109f8565b60405180910390f35b61008a61020a565b005b6100a660048036038101906100a19190610aab565b6104a3565b005b6100c260048036038101906100bd9190610b08565b6105c5565b005b6100de60048036038101906100d99190610b08565b61060c565b005b6100fa60048036038101906100f59190610b33565b610753565b005b60605f805480602002602001604051908101604052809291908181526020015f905b82821015610201578382905f5260205f2090600302016040518060600160405290815f8201805461014e90610bbd565b80601f016020809104026020016040519081016040528092919081815260200182805461017a90610bbd565b80156101c55780601f1061019c576101008083540402835291602001916101c5565b820191905f5260205f20905b8154815290600101906020018083116101a857829003601f168201915b50505050508152602001600182015f9054906101000a900460ff161515151581526020016002820154815250508152602001906001019061011e565b50505050905090565b5f808054905090505f5b6001826102219190610c1a565b81101561049f575f5b600182846102389190610c1a565b6102429190610c1a565b811015610491575f6001826102579190610c4d565b8154811061026857610267610c80565b5b905f5260205f209060030201600201545f828154811061028b5761028a610c80565b5b905f5260205f209060030201600201541115610484575f8082815481106102b5576102b4610c80565b5b905f5260205f2090600302016040518060600160405290815f820180546102db90610bbd565b80601f016020809104026020016040519081016040528092919081815260200182805461030790610bbd565b80156103525780601f1061032957610100808354040283529160200191610352565b820191905f5260205f20905b81548152906001019060200180831161033557829003601f168201915b50505050508152602001600182015f9054906101000a900460ff1615151515815260200160028201548152505090505f60018361038f9190610c4d565b815481106103a05761039f610c80565b5b905f5260205f2090600302015f83815481106103bf576103be610c80565b5b905f5260205f2090600302015f8201815f0190816103dd9190610e8c565b50600182015f9054906101000a900460ff16816001015f6101000a81548160ff02191690831515021790555060028201548160020155905050805f6001846104259190610c4d565b8154811061043657610435610c80565b5b905f5260205f2090600302015f820151815f0190816104559190610f71565b506020820151816001015f6101000a81548160ff02191690831515021790555060408201518160020155905050505b808060010191505061022a565b508080600101915050610214565b5050565b600181101580156104b5575060038111155b15610585575f604051806060016040528085858080601f0160208091040260200160405190810160405280939291908181526020018383808284375f81840152601f19601f8201169050808301925050505050505081526020015f1515815260200183815250908060018154018082558091505060019003905f5260205f2090600302015f909190919091505f820151815f0190816105549190610f71565b506020820151816001015f6101000a81548160ff0219169083151502179055506040820151816002015550506105c0565b6040517f08c379a00000000000000000000000000000000000000000000000000000000081526004016105b7906110c0565b60405180910390fd5b505050565b6105ce816107d7565b5060015f82815481106105e4576105e3610c80565b5b905f5260205f2090600302016001015f6101000a81548160ff02191690831515021790555050565b610615816107d7565b15610715575f60015f8054905061062c9190610c1a565b90508082146106bf575f818154811061064857610647610c80565b5b905f5260205f2090600302015f838154811061066757610666610c80565b5b905f5260205f2090600302015f8201815f0190816106859190610e8c565b50600182015f9054906101000a900460ff16816001015f6101000a81548160ff021916908315150217905550600282015481600201559050505b5f8054806106d0576106cf6110de565b5b600190038181905f5260205f2090600302015f8082015f6106f191906107f6565b600182015f6101000a81549060ff0219169055600282015f90555050905550610750565b6040517f08c379a000000000000000000000000000000000000000000000000000000000815260040161074790611155565b60405180910390fd5b50565b61075c836107d7565b156107975781815f858154811061077657610775610c80565b5b905f5260205f2090600302015f01918261079192919061117d565b506107d2565b6040517f08c379a00000000000000000000000000000000000000000000000000000000081526004016107c990611155565b60405180910390fd5b505050565b5f80805490508210156107ed57600190506107f1565b5f90505b919050565b50805461080290610bbd565b5f825580601f106108135750610830565b601f0160209004905f5260205f209081019061082f9190610833565b5b50565b5b8082111561084a575f815f905550600101610834565b5090565b5f81519050919050565b5f82825260208201905092915050565b5f819050602082019050919050565b5f81519050919050565b5f82825260208201905092915050565b8281835e5f83830152505050565b5f601f19601f8301169050919050565b5f6108b982610877565b6108c38185610881565b93506108d3818560208601610891565b6108dc8161089f565b840191505092915050565b5f8115159050919050565b6108fb816108e7565b82525050565b5f819050919050565b61091381610901565b82525050565b5f606083015f8301518482035f86015261093382826108af565b915050602083015161094860208601826108f2565b50604083015161095b604086018261090a565b508091505092915050565b5f6109718383610919565b905092915050565b5f602082019050919050565b5f61098f8261084e565b6109998185610858565b9350836020820285016109ab85610868565b805f5b858110156109e657848403895281516109c78582610966565b94506109d283610979565b925060208a019950506001810190506109ae565b50829750879550505050505092915050565b5f6020820190508181035f830152610a108184610985565b905092915050565b5f80fd5b5f80fd5b5f80fd5b5f80fd5b5f80fd5b5f8083601f840112610a4157610a40610a20565b5b8235905067ffffffffffffffff811115610a5e57610a5d610a24565b5b602083019150836001820283011115610a7a57610a79610a28565b5b9250929050565b610a8a81610901565b8114610a94575f80fd5b50565b5f81359050610aa581610a81565b92915050565b5f805f60408486031215610ac257610ac1610a18565b5b5f84013567ffffffffffffffff811115610adf57610ade610a1c565b5b610aeb86828701610a2c565b93509350506020610afe86828701610a97565b9150509250925092565b5f60208284031215610b1d57610b1c610a18565b5b5f610b2a84828501610a97565b91505092915050565b5f805f60408486031215610b4a57610b49610a18565b5b5f610b5786828701610a97565b935050602084013567ffffffffffffffff811115610b7857610b77610a1c565b5b610b8486828701610a2c565b92509250509250925092565b7f4e487b71000000000000000000000000000000000000000000000000000000005f52602260045260245ffd5b5f6002820490506001821680610bd457607f821691505b602082108103610be757610be6610b90565b5b50919050565b7f4e487b71000000000000000000000000000000000000000000000000000000005f52601160045260245ffd5b5f610c2482610901565b9150610c2f83610901565b9250828203905081811115610c4757610c46610bed565b5b92915050565b5f610c5782610901565b9150610c6283610901565b9250828201905080821115610c7a57610c79610bed565b5b92915050565b7f4e487b71000000000000000000000000000000000000000000000000000000005f52603260045260245ffd5b5f81549050610cbb81610bbd565b9050919050565b7f4e487b71000000000000000000000000000000000000000000000000000000005f52604160045260245ffd5b5f819050815f5260205f209050919050565b5f6020601f8301049050919050565b5f82821b905092915050565b5f60088302610d4b7fffffffffffffffffffffffffffffffffffffffffffffffffffffffffffffffff82610d10565b610d558683610d10565b95508019841693508086168417925050509392505050565b5f819050919050565b5f610d90610d8b610d8684610901565b610d6d565b610901565b9050919050565b5f819050919050565b610da983610d76565b610dbd610db582610d97565b848454610d1c565b825550505050565b5f90565b610dd1610dc5565b610ddc818484610da0565b505050565b5b81811015610dff57610df45f82610dc9565b600181019050610de2565b5050565b601f821115610e4457610e1581610cef565b610e1e84610d01565b81016020851015610e2d578190505b610e41610e3985610d01565b830182610de1565b50505b505050565b5f82821c905092915050565b5f610e645f1984600802610e49565b1980831691505092915050565b5f610e7c8383610e55565b9150826002028217905092915050565b818103610e9a575050610f6f565b610ea382610cad565b67ffffffffffffffff811115610ebc57610ebb610cc2565b5b610ec68254610bbd565b610ed1828285610e03565b5f601f831160018114610efe575f8415610eec578287015490505b610ef68582610e71565b865550610f68565b601f198416610f0c87610cef565b9650610f1786610cef565b5f5b82811015610f3e57848901548255600182019150600185019450602081019050610f19565b86831015610f5b5784890154610f57601f891682610e55565b8355505b6001600288020188555050505b5050505050505b565b610f7a82610877565b67ffffffffffffffff811115610f9357610f92610cc2565b5b610f9d8254610bbd565b610fa8828285610e03565b5f60209050601f831160018114610fd9575f8415610fc7578287015190505b610fd18582610e71565b865550611038565b601f198416610fe786610cef565b5f5b8281101561100e57848901518255600182019150602085019450602081019050610fe9565b8683101561102b5784890151611027601f891682610e55565b8355505b6001600288020188555050505b505050505050565b5f82825260208201905092915050565b7f496e76616c6964207072696f726974792e204974206d757374206265206265745f8201527f7765656e203120616e6420332e00000000000000000000000000000000000000602082015250565b5f6110aa602d83611040565b91506110b582611050565b604082019050919050565b5f6020820190508181035f8301526110d78161109e565b9050919050565b7f4e487b71000000000000000000000000000000000000000000000000000000005f52603160045260245ffd5b7f5461736b20646f6573206e6f742065786973742e0000000000000000000000005f82015250565b5f61113f601483611040565b915061114a8261110b565b602082019050919050565b5f6020820190508181035f83015261116c81611133565b9050919050565b5f82905092915050565b6111878383611173565b67ffffffffffffffff8111156111a05761119f610cc2565b5b6111aa8254610bbd565b6111b5828285610e03565b5f601f8311600181146111e2575f84156111d0578287013590505b6111da8582610e71565b865550611241565b601f1984166111f086610cef565b5f5b82811015611217578489013582556001820191506020850194506020810190506111f2565b868310156112345784890135611230601f891682610e55565b8355505b6001600288020188555050505b5050505050505056fea2646970667358221220596a73e84f45123e25ebb90f8f8d49086a52d760becae739b2bfae5fd486469064736f6c634300081a0033",
					"opcodes": "PUSH1 0x80 PUSH1 0x40 MSTORE CALLVALUE DUP1 ISZERO PUSH1 0xE JUMPI PUSH0 DUP1 REVERT JUMPDEST POP PUSH2 0x1280 DUP1 PUSH2 0x1C PUSH0 CODECOPY PUSH0 RETURN INVALID PUSH1 0x80 PUSH1 0x40 MSTORE CALLVALUE DUP1 ISZERO PUSH2 0xF JUMPI PUSH0 DUP1 REVERT JUMPDEST POP PUSH1 0x4 CALLDATASIZE LT PUSH2 0x60 JUMPI PUSH0 CALLDATALOAD PUSH1 0xE0 SHR DUP1 PUSH4 0x4A87E38 EQ PUSH2 0x64 JUMPI DUP1 PUSH4 0x163AA1C2 EQ PUSH2 0x82 JUMPI DUP1 PUSH4 0x3143D082 EQ PUSH2 0x8C JUMPI DUP1 PUSH4 0xA91C55F3 EQ PUSH2 0xA8 JUMPI DUP1 PUSH4 0xC3084117 EQ PUSH2 0xC4 JUMPI DUP1 PUSH4 0xCB7BD995 EQ PUSH2 0xE0 JUMPI JUMPDEST PUSH0 DUP1 REVERT JUMPDEST PUSH2 0x6C PUSH2 0xFC JUMP JUMPDEST PUSH1 0x40 MLOAD PUSH2 0x79 SWAP2 SWAP1 PUSH2 0x9F8 JUMP JUMPDEST PUSH1 0x40 MLOAD DUP1 SWAP2 SUB SWAP1 RETURN JUMPDEST PUSH2 0x8A PUSH2 0x20A JUMP JUMPDEST STOP JUMPDEST PUSH2 0xA6 PUSH1 0x4 DUP1 CALLDATASIZE SUB DUP2 ADD SWAP1 PUSH2 0xA1 SWAP2 SWAP1 PUSH2 0xAAB JUMP JUMPDEST PUSH2 0x4A3 JUMP JUMPDEST STOP JUMPDEST PUSH2 0xC2 PUSH1 0x4 DUP1 CALLDATASIZE SUB DUP2 ADD SWAP1 PUSH2 0xBD SWAP2 SWAP1 PUSH2 0xB08 JUMP JUMPDEST PUSH2 0x5C5 JUMP JUMPDEST STOP JUMPDEST PUSH2 0xDE PUSH1 0x4 DUP1 CALLDATASIZE SUB DUP2 ADD SWAP1 PUSH2 0xD9 SWAP2 SWAP1 PUSH2 0xB08 JUMP JUMPDEST PUSH2 0x60C JUMP JUMPDEST STOP JUMPDEST PUSH2 0xFA PUSH1 0x4 DUP1 CALLDATASIZE SUB DUP2 ADD SWAP1 PUSH2 0xF5 SWAP2 SWAP1 PUSH2 0xB33 JUMP JUMPDEST PUSH2 0x753 JUMP JUMPDEST STOP JUMPDEST PUSH1 0x60 PUSH0 DUP1 SLOAD DUP1 PUSH1 0x20 MUL PUSH1 0x20 ADD PUSH1 0x40 MLOAD SWAP1 DUP2 ADD PUSH1 0x40 MSTORE DUP1 SWAP3 SWAP2 SWAP1 DUP2 DUP2 MSTORE PUSH1 0x20 ADD PUSH0 SWAP1 JUMPDEST DUP3 DUP3 LT ISZERO PUSH2 0x201 JUMPI DUP4 DUP3 SWAP1 PUSH0 MSTORE PUSH1 0x20 PUSH0 KECCAK256 SWAP1 PUSH1 0x3 MUL ADD PUSH1 0x40 MLOAD DUP1 PUSH1 0x60 ADD PUSH1 0x40 MSTORE SWAP1 DUP2 PUSH0 DUP3 ADD DUP1 SLOAD PUSH2 0x14E SWAP1 PUSH2 0xBBD JUMP JUMPDEST DUP1 PUSH1 0x1F ADD PUSH1 0x20 DUP1 SWAP2 DIV MUL PUSH1 0x20 ADD PUSH1 0x40 MLOAD SWAP1 DUP2 ADD PUSH1 0x40 MSTORE DUP1 SWAP3 SWAP2 SWAP1 DUP2 DUP2 MSTORE PUSH1 0x20 ADD DUP3 DUP1 SLOAD PUSH2 0x17A SWAP1 PUSH2 0xBBD JUMP JUMPDEST DUP1 ISZERO PUSH2 0x1C5 JUMPI DUP1 PUSH1 0x1F LT PUSH2 0x19C JUMPI PUSH2 0x100 DUP1 DUP4 SLOAD DIV MUL DUP4 MSTORE SWAP2 PUSH1 0x20 ADD SWAP2 PUSH2 0x1C5 JUMP JUMPDEST DUP3 ADD SWAP2 SWAP1 PUSH0 MSTORE PUSH1 0x20 PUSH0 KECCAK256 SWAP1 JUMPDEST DUP2 SLOAD DUP2 MSTORE SWAP1 PUSH1 0x1 ADD SWAP1 PUSH1 0x20 ADD DUP1 DUP4 GT PUSH2 0x1A8 JUMPI DUP3 SWAP1 SUB PUSH1 0x1F AND DUP3 ADD SWAP2 JUMPDEST POP POP POP POP POP DUP2 MSTORE PUSH1 0x20 ADD PUSH1 0x1 DUP3 ADD PUSH0 SWAP1 SLOAD SWAP1 PUSH2 0x100 EXP SWAP1 DIV PUSH1 0xFF AND ISZERO ISZERO ISZERO ISZERO DUP2 MSTORE PUSH1 0x20 ADD PUSH1 0x2 DUP3 ADD SLOAD DUP2 MSTORE POP POP DUP2 MSTORE PUSH1 0x20 ADD SWAP1 PUSH1 0x1 ADD SWAP1 PUSH2 0x11E JUMP JUMPDEST POP POP POP POP SWAP1 POP SWAP1 JUMP JUMPDEST PUSH0 DUP1 DUP1 SLOAD SWAP1 POP SWAP1 POP PUSH0 JUMPDEST PUSH1 0x1 DUP3 PUSH2 0x221 SWAP2 SWAP1 PUSH2 0xC1A JUMP JUMPDEST DUP2 LT ISZERO PUSH2 0x49F JUMPI PUSH0 JUMPDEST PUSH1 0x1 DUP3 DUP5 PUSH2 0x238 SWAP2 SWAP1 PUSH2 0xC1A JUMP JUMPDEST PUSH2 0x242 SWAP2 SWAP1 PUSH2 0xC1A JUMP JUMPDEST DUP2 LT ISZERO PUSH2 0x491 JUMPI PUSH0 PUSH1 0x1 DUP3 PUSH2 0x257 SWAP2 SWAP1 PUSH2 0xC4D JUMP JUMPDEST DUP2 SLOAD DUP2 LT PUSH2 0x268 JUMPI PUSH2 0x267 PUSH2 0xC80 JUMP JUMPDEST JUMPDEST SWAP1 PUSH0 MSTORE PUSH1 0x20 PUSH0 KECCAK256 SWAP1 PUSH1 0x3 MUL ADD PUSH1 0x2 ADD SLOAD PUSH0 DUP3 DUP2 SLOAD DUP2 LT PUSH2 0x28B JUMPI PUSH2 0x28A PUSH2 0xC80 JUMP JUMPDEST JUMPDEST SWAP1 PUSH0 MSTORE PUSH1 0x20 PUSH0 KECCAK256 SWAP1 PUSH1 0x3 MUL ADD PUSH1 0x2 ADD SLOAD GT ISZERO PUSH2 0x484 JUMPI PUSH0 DUP1 DUP3 DUP2 SLOAD DUP2 LT PUSH2 0x2B5 JUMPI PUSH2 0x2B4 PUSH2 0xC80 JUMP JUMPDEST JUMPDEST SWAP1 PUSH0 MSTORE PUSH1 0x20 PUSH0 KECCAK256 SWAP1 PUSH1 0x3 MUL ADD PUSH1 0x40 MLOAD DUP1 PUSH1 0x60 ADD PUSH1 0x40 MSTORE SWAP1 DUP2 PUSH0 DUP3 ADD DUP1 SLOAD PUSH2 0x2DB SWAP1 PUSH2 0xBBD JUMP JUMPDEST DUP1 PUSH1 0x1F ADD PUSH1 0x20 DUP1 SWAP2 DIV MUL PUSH1 0x20 ADD PUSH1 0x40 MLOAD SWAP1 DUP2 ADD PUSH1 0x40 MSTORE DUP1 SWAP3 SWAP2 SWAP1 DUP2 DUP2 MSTORE PUSH1 0x20 ADD DUP3 DUP1 SLOAD PUSH2 0x307 SWAP1 PUSH2 0xBBD JUMP JUMPDEST DUP1 ISZERO PUSH2 0x352 JUMPI DUP1 PUSH1 0x1F LT PUSH2 0x329 JUMPI PUSH2 0x100 DUP1 DUP4 SLOAD DIV MUL DUP4 MSTORE SWAP2 PUSH1 0x20 ADD SWAP2 PUSH2 0x352 JUMP JUMPDEST DUP3 ADD SWAP2 SWAP1 PUSH0 MSTORE PUSH1 0x20 PUSH0 KECCAK256 SWAP1 JUMPDEST DUP2 SLOAD DUP2 MSTORE SWAP1 PUSH1 0x1 ADD SWAP1 PUSH1 0x20 ADD DUP1 DUP4 GT PUSH2 0x335 JUMPI DUP3 SWAP1 SUB PUSH1 0x1F AND DUP3 ADD SWAP2 JUMPDEST POP POP POP POP POP DUP2 MSTORE PUSH1 0x20 ADD PUSH1 0x1 DUP3 ADD PUSH0 SWAP1 SLOAD SWAP1 PUSH2 0x100 EXP SWAP1 DIV PUSH1 0xFF AND ISZERO ISZERO ISZERO ISZERO DUP2 MSTORE PUSH1 0x20 ADD PUSH1 0x2 DUP3 ADD SLOAD DUP2 MSTORE POP POP SWAP1 POP PUSH0 PUSH1 0x1 DUP4 PUSH2 0x38F SWAP2 SWAP1 PUSH2 0xC4D JUMP JUMPDEST DUP2 SLOAD DUP2 LT PUSH2 0x3A0 JUMPI PUSH2 0x39F PUSH2 0xC80 JUMP JUMPDEST JUMPDEST SWAP1 PUSH0 MSTORE PUSH1 0x20 PUSH0 KECCAK256 SWAP1 PUSH1 0x3 MUL ADD PUSH0 DUP4 DUP2 SLOAD DUP2 LT PUSH2 0x3BF JUMPI PUSH2 0x3BE PUSH2 0xC80 JUMP JUMPDEST JUMPDEST SWAP1 PUSH0 MSTORE PUSH1 0x20 PUSH0 KECCAK256 SWAP1 PUSH1 0x3 MUL ADD PUSH0 DUP3 ADD DUP2 PUSH0 ADD SWAP1 DUP2 PUSH2 0x3DD SWAP2 SWAP1 PUSH2 0xE8C JUMP JUMPDEST POP PUSH1 0x1 DUP3 ADD PUSH0 SWAP1 SLOAD SWAP1 PUSH2 0x100 EXP SWAP1 DIV PUSH1 0xFF AND DUP2 PUSH1 0x1 ADD PUSH0 PUSH2 0x100 EXP DUP2 SLOAD DUP2 PUSH1 0xFF MUL NOT AND SWAP1 DUP4 ISZERO ISZERO MUL OR SWAP1 SSTORE POP PUSH1 0x2 DUP3 ADD SLOAD DUP2 PUSH1 0x2 ADD SSTORE SWAP1 POP POP DUP1 PUSH0 PUSH1 0x1 DUP5 PUSH2 0x425 SWAP2 SWAP1 PUSH2 0xC4D JUMP JUMPDEST DUP2 SLOAD DUP2 LT PUSH2 0x436 JUMPI PUSH2 0x435 PUSH2 0xC80 JUMP JUMPDEST JUMPDEST SWAP1 PUSH0 MSTORE PUSH1 0x20 PUSH0 KECCAK256 SWAP1 PUSH1 0x3 MUL ADD PUSH0 DUP3 ADD MLOAD DUP2 PUSH0 ADD SWAP1 DUP2 PUSH2 0x455 SWAP2 SWAP1 PUSH2 0xF71 JUMP JUMPDEST POP PUSH1 0x20 DUP3 ADD MLOAD DUP2 PUSH1 0x1 ADD PUSH0 PUSH2 0x100 EXP DUP2 SLOAD DUP2 PUSH1 0xFF MUL NOT AND SWAP1 DUP4 ISZERO ISZERO MUL OR SWAP1 SSTORE POP PUSH1 0x40 DUP3 ADD MLOAD DUP2 PUSH1 0x2 ADD SSTORE SWAP1 POP POP POP JUMPDEST DUP1 DUP1 PUSH1 0x1 ADD SWAP2 POP POP PUSH2 0x22A JUMP JUMPDEST POP DUP1 DUP1 PUSH1 0x1 ADD SWAP2 POP POP PUSH2 0x214 JUMP JUMPDEST POP POP JUMP JUMPDEST PUSH1 0x1 DUP2 LT ISZERO DUP1 ISZERO PUSH2 0x4B5 JUMPI POP PUSH1 0x3 DUP2 GT ISZERO JUMPDEST ISZERO PUSH2 0x585 JUMPI PUSH0 PUSH1 0x40 MLOAD DUP1 PUSH1 0x60 ADD PUSH1 0x40 MSTORE DUP1 DUP6 DUP6 DUP1 DUP1 PUSH1 0x1F ADD PUSH1 0x20 DUP1 SWAP2 DIV MUL PUSH1 0x20 ADD PUSH1 0x40 MLOAD SWAP1 DUP2 ADD PUSH1 0x40 MSTORE DUP1 SWAP4 SWAP3 SWAP2 SWAP1 DUP2 DUP2 MSTORE PUSH1 0x20 ADD DUP4 DUP4 DUP1 DUP3 DUP5 CALLDATACOPY PUSH0 DUP2 DUP5 ADD MSTORE PUSH1 0x1F NOT PUSH1 0x1F DUP3 ADD AND SWAP1 POP DUP1 DUP4 ADD SWAP3 POP POP POP POP POP POP POP DUP2 MSTORE PUSH1 0x20 ADD PUSH0 ISZERO ISZERO DUP2 MSTORE PUSH1 0x20 ADD DUP4 DUP2 MSTORE POP SWAP1 DUP1 PUSH1 0x1 DUP2 SLOAD ADD DUP1 DUP3 SSTORE DUP1 SWAP2 POP POP PUSH1 0x1 SWAP1 SUB SWAP1 PUSH0 MSTORE PUSH1 0x20 PUSH0 KECCAK256 SWAP1 PUSH1 0x3 MUL ADD PUSH0 SWAP1 SWAP2 SWAP1 SWAP2 SWAP1 SWAP2 POP PUSH0 DUP3 ADD MLOAD DUP2 PUSH0 ADD SWAP1 DUP2 PUSH2 0x554 SWAP2 SWAP1 PUSH2 0xF71 JUMP JUMPDEST POP PUSH1 0x20 DUP3 ADD MLOAD DUP2 PUSH1 0x1 ADD PUSH0 PUSH2 0x100 EXP DUP2 SLOAD DUP2 PUSH1 0xFF MUL NOT AND SWAP1 DUP4 ISZERO ISZERO MUL OR SWAP1 SSTORE POP PUSH1 0x40 DUP3 ADD MLOAD DUP2 PUSH1 0x2 ADD SSTORE POP POP PUSH2 0x5C0 JUMP JUMPDEST PUSH1 0x40 MLOAD PUSH32 0x8C379A000000000000000000000000000000000000000000000000000000000 DUP2 MSTORE PUSH1 0x4 ADD PUSH2 0x5B7 SWAP1 PUSH2 0x10C0 JUMP JUMPDEST PUSH1 0x40 MLOAD DUP1 SWAP2 SUB SWAP1 REVERT JUMPDEST POP POP POP JUMP JUMPDEST PUSH2 0x5CE DUP2 PUSH2 0x7D7 JUMP JUMPDEST POP PUSH1 0x1 PUSH0 DUP3 DUP2 SLOAD DUP2 LT PUSH2 0x5E4 JUMPI PUSH2 0x5E3 PUSH2 0xC80 JUMP JUMPDEST JUMPDEST SWAP1 PUSH0 MSTORE PUSH1 0x20 PUSH0 KECCAK256 SWAP1 PUSH1 0x3 MUL ADD PUSH1 0x1 ADD PUSH0 PUSH2 0x100 EXP DUP2 SLOAD DUP2 PUSH1 0xFF MUL NOT AND SWAP1 DUP4 ISZERO ISZERO MUL OR SWAP1 SSTORE POP POP JUMP JUMPDEST PUSH2 0x615 DUP2 PUSH2 0x7D7 JUMP JUMPDEST ISZERO PUSH2 0x715 JUMPI PUSH0 PUSH1 0x1 PUSH0 DUP1 SLOAD SWAP1 POP PUSH2 0x62C SWAP2 SWAP1 PUSH2 0xC1A JUMP JUMPDEST SWAP1 POP DUP1 DUP3 EQ PUSH2 0x6BF JUMPI PUSH0 DUP2 DUP2 SLOAD DUP2 LT PUSH2 0x648 JUMPI PUSH2 0x647 PUSH2 0xC80 JUMP JUMPDEST JUMPDEST SWAP1 PUSH0 MSTORE PUSH1 0x20 PUSH0 KECCAK256 SWAP1 PUSH1 0x3 MUL ADD PUSH0 DUP4 DUP2 SLOAD DUP2 LT PUSH2 0x667 JUMPI PUSH2 0x666 PUSH2 0xC80 JUMP JUMPDEST JUMPDEST SWAP1 PUSH0 MSTORE PUSH1 0x20 PUSH0 KECCAK256 SWAP1 PUSH1 0x3 MUL ADD PUSH0 DUP3 ADD DUP2 PUSH0 ADD SWAP1 DUP2 PUSH2 0x685 SWAP2 SWAP1 PUSH2 0xE8C JUMP JUMPDEST POP PUSH1 0x1 DUP3 ADD PUSH0 SWAP1 SLOAD SWAP1 PUSH2 0x100 EXP SWAP1 DIV PUSH1 0xFF AND DUP2 PUSH1 0x1 ADD PUSH0 PUSH2 0x100 EXP DUP2 SLOAD DUP2 PUSH1 0xFF MUL NOT AND SWAP1 DUP4 ISZERO ISZERO MUL OR SWAP1 SSTORE POP PUSH1 0x2 DUP3 ADD SLOAD DUP2 PUSH1 0x2 ADD SSTORE SWAP1 POP POP JUMPDEST PUSH0 DUP1 SLOAD DUP1 PUSH2 0x6D0 JUMPI PUSH2 0x6CF PUSH2 0x10DE JUMP JUMPDEST JUMPDEST PUSH1 0x1 SWAP1 SUB DUP2 DUP2 SWAP1 PUSH0 MSTORE PUSH1 0x20 PUSH0 KECCAK256 SWAP1 PUSH1 0x3 MUL ADD PUSH0 DUP1 DUP3 ADD PUSH0 PUSH2 0x6F1 SWAP2 SWAP1 PUSH2 0x7F6 JUMP JUMPDEST PUSH1 0x1 DUP3 ADD PUSH0 PUSH2 0x100 EXP DUP2 SLOAD SWAP1 PUSH1 0xFF MUL NOT AND SWAP1 SSTORE PUSH1 0x2 DUP3 ADD PUSH0 SWAP1 SSTORE POP POP SWAP1 SSTORE POP PUSH2 0x750 JUMP JUMPDEST PUSH1 0x40 MLOAD PUSH32 0x8C379A000000000000000000000000000000000000000000000000000000000 DUP2 MSTORE PUSH1 0x4 ADD PUSH2 0x747 SWAP1 PUSH2 0x1155 JUMP JUMPDEST PUSH1 0x40 MLOAD DUP1 SWAP2 SUB SWAP1 REVERT JUMPDEST POP JUMP JUMPDEST PUSH2 0x75C DUP4 PUSH2 0x7D7 JUMP JUMPDEST ISZERO PUSH2 0x797 JUMPI DUP2 DUP2 PUSH0 DUP6 DUP2 SLOAD DUP2 LT PUSH2 0x776 JUMPI PUSH2 0x775 PUSH2 0xC80 JUMP JUMPDEST JUMPDEST SWAP1 PUSH0 MSTORE PUSH1 0x20 PUSH0 KECCAK256 SWAP1 PUSH1 0x3 MUL ADD PUSH0 ADD SWAP2 DUP3 PUSH2 0x791 SWAP3 SWAP2 SWAP1 PUSH2 0x117D JUMP JUMPDEST POP PUSH2 0x7D2 JUMP JUMPDEST PUSH1 0x40 MLOAD PUSH32 0x8C379A000000000000000000000000000000000000000000000000000000000 DUP2 MSTORE PUSH1 0x4 ADD PUSH2 0x7C9 SWAP1 PUSH2 0x1155 JUMP JUMPDEST PUSH1 0x40 MLOAD DUP1 SWAP2 SUB SWAP1 REVERT JUMPDEST POP POP POP JUMP JUMPDEST PUSH0 DUP1 DUP1 SLOAD SWAP1 POP DUP3 LT ISZERO PUSH2 0x7ED JUMPI PUSH1 0x1 SWAP1 POP PUSH2 0x7F1 JUMP JUMPDEST PUSH0 SWAP1 POP JUMPDEST SWAP2 SWAP1 POP JUMP JUMPDEST POP DUP1 SLOAD PUSH2 0x802 SWAP1 PUSH2 0xBBD JUMP JUMPDEST PUSH0 DUP3 SSTORE DUP1 PUSH1 0x1F LT PUSH2 0x813 JUMPI POP PUSH2 0x830 JUMP JUMPDEST PUSH1 0x1F ADD PUSH1 0x20 SWAP1 DIV SWAP1 PUSH0 MSTORE PUSH1 0x20 PUSH0 KECCAK256 SWAP1 DUP2 ADD SWAP1 PUSH2 0x82F SWAP2 SWAP1 PUSH2 0x833 JUMP JUMPDEST JUMPDEST POP JUMP JUMPDEST JUMPDEST DUP1 DUP3 GT ISZERO PUSH2 0x84A JUMPI PUSH0 DUP2 PUSH0 SWAP1 SSTORE POP PUSH1 0x1 ADD PUSH2 0x834 JUMP JUMPDEST POP SWAP1 JUMP JUMPDEST PUSH0 DUP2 MLOAD SWAP1 POP SWAP2 SWAP1 POP JUMP JUMPDEST PUSH0 DUP3 DUP3 MSTORE PUSH1 0x20 DUP3 ADD SWAP1 POP SWAP3 SWAP2 POP POP JUMP JUMPDEST PUSH0 DUP2 SWAP1 POP PUSH1 0x20 DUP3 ADD SWAP1 POP SWAP2 SWAP1 POP JUMP JUMPDEST PUSH0 DUP2 MLOAD SWAP1 POP SWAP2 SWAP1 POP JUMP JUMPDEST PUSH0 DUP3 DUP3 MSTORE PUSH1 0x20 DUP3 ADD SWAP1 POP SWAP3 SWAP2 POP POP JUMP JUMPDEST DUP3 DUP2 DUP4 MCOPY PUSH0 DUP4 DUP4 ADD MSTORE POP POP POP JUMP JUMPDEST PUSH0 PUSH1 0x1F NOT PUSH1 0x1F DUP4 ADD AND SWAP1 POP SWAP2 SWAP1 POP JUMP JUMPDEST PUSH0 PUSH2 0x8B9 DUP3 PUSH2 0x877 JUMP JUMPDEST PUSH2 0x8C3 DUP2 DUP6 PUSH2 0x881 JUMP JUMPDEST SWAP4 POP PUSH2 0x8D3 DUP2 DUP6 PUSH1 0x20 DUP7 ADD PUSH2 0x891 JUMP JUMPDEST PUSH2 0x8DC DUP2 PUSH2 0x89F JUMP JUMPDEST DUP5 ADD SWAP2 POP POP SWAP3 SWAP2 POP POP JUMP JUMPDEST PUSH0 DUP2 ISZERO ISZERO SWAP1 POP SWAP2 SWAP1 POP JUMP JUMPDEST PUSH2 0x8FB DUP2 PUSH2 0x8E7 JUMP JUMPDEST DUP3 MSTORE POP POP JUMP JUMPDEST PUSH0 DUP2 SWAP1 POP SWAP2 SWAP1 POP JUMP JUMPDEST PUSH2 0x913 DUP2 PUSH2 0x901 JUMP JUMPDEST DUP3 MSTORE POP POP JUMP JUMPDEST PUSH0 PUSH1 0x60 DUP4 ADD PUSH0 DUP4 ADD MLOAD DUP5 DUP3 SUB PUSH0 DUP7 ADD MSTORE PUSH2 0x933 DUP3 DUP3 PUSH2 0x8AF JUMP JUMPDEST SWAP2 POP POP PUSH1 0x20 DUP4 ADD MLOAD PUSH2 0x948 PUSH1 0x20 DUP7 ADD DUP3 PUSH2 0x8F2 JUMP JUMPDEST POP PUSH1 0x40 DUP4 ADD MLOAD PUSH2 0x95B PUSH1 0x40 DUP7 ADD DUP3 PUSH2 0x90A JUMP JUMPDEST POP DUP1 SWAP2 POP POP SWAP3 SWAP2 POP POP JUMP JUMPDEST PUSH0 PUSH2 0x971 DUP4 DUP4 PUSH2 0x919 JUMP JUMPDEST SWAP1 POP SWAP3 SWAP2 POP POP JUMP JUMPDEST PUSH0 PUSH1 0x20 DUP3 ADD SWAP1 POP SWAP2 SWAP1 POP JUMP JUMPDEST PUSH0 PUSH2 0x98F DUP3 PUSH2 0x84E JUMP JUMPDEST PUSH2 0x999 DUP2 DUP6 PUSH2 0x858 JUMP JUMPDEST SWAP4 POP DUP4 PUSH1 0x20 DUP3 MUL DUP6 ADD PUSH2 0x9AB DUP6 PUSH2 0x868 JUMP JUMPDEST DUP1 PUSH0 JUMPDEST DUP6 DUP2 LT ISZERO PUSH2 0x9E6 JUMPI DUP5 DUP5 SUB DUP10 MSTORE DUP2 MLOAD PUSH2 0x9C7 DUP6 DUP3 PUSH2 0x966 JUMP JUMPDEST SWAP5 POP PUSH2 0x9D2 DUP4 PUSH2 0x979 JUMP JUMPDEST SWAP3 POP PUSH1 0x20 DUP11 ADD SWAP10 POP POP PUSH1 0x1 DUP2 ADD SWAP1 POP PUSH2 0x9AE JUMP JUMPDEST POP DUP3 SWAP8 POP DUP8 SWAP6 POP POP POP POP POP POP SWAP3 SWAP2 POP POP JUMP JUMPDEST PUSH0 PUSH1 0x20 DUP3 ADD SWAP1 POP DUP2 DUP2 SUB PUSH0 DUP4 ADD MSTORE PUSH2 0xA10 DUP2 DUP5 PUSH2 0x985 JUMP JUMPDEST SWAP1 POP SWAP3 SWAP2 POP POP JUMP JUMPDEST PUSH0 DUP1 REVERT JUMPDEST PUSH0 DUP1 REVERT JUMPDEST PUSH0 DUP1 REVERT JUMPDEST PUSH0 DUP1 REVERT JUMPDEST PUSH0 DUP1 REVERT JUMPDEST PUSH0 DUP1 DUP4 PUSH1 0x1F DUP5 ADD SLT PUSH2 0xA41 JUMPI PUSH2 0xA40 PUSH2 0xA20 JUMP JUMPDEST JUMPDEST DUP3 CALLDATALOAD SWAP1 POP PUSH8 0xFFFFFFFFFFFFFFFF DUP2 GT ISZERO PUSH2 0xA5E JUMPI PUSH2 0xA5D PUSH2 0xA24 JUMP JUMPDEST JUMPDEST PUSH1 0x20 DUP4 ADD SWAP2 POP DUP4 PUSH1 0x1 DUP3 MUL DUP4 ADD GT ISZERO PUSH2 0xA7A JUMPI PUSH2 0xA79 PUSH2 0xA28 JUMP JUMPDEST JUMPDEST SWAP3 POP SWAP3 SWAP1 POP JUMP JUMPDEST PUSH2 0xA8A DUP2 PUSH2 0x901 JUMP JUMPDEST DUP2 EQ PUSH2 0xA94 JUMPI PUSH0 DUP1 REVERT JUMPDEST POP JUMP JUMPDEST PUSH0 DUP2 CALLDATALOAD SWAP1 POP PUSH2 0xAA5 DUP2 PUSH2 0xA81 JUMP JUMPDEST SWAP3 SWAP2 POP POP JUMP JUMPDEST PUSH0 DUP1 PUSH0 PUSH1 0x40 DUP5 DUP7 SUB SLT ISZERO PUSH2 0xAC2 JUMPI PUSH2 0xAC1 PUSH2 0xA18 JUMP JUMPDEST JUMPDEST PUSH0 DUP5 ADD CALLDATALOAD PUSH8 0xFFFFFFFFFFFFFFFF DUP2 GT ISZERO PUSH2 0xADF JUMPI PUSH2 0xADE PUSH2 0xA1C JUMP JUMPDEST JUMPDEST PUSH2 0xAEB DUP7 DUP3 DUP8 ADD PUSH2 0xA2C JUMP JUMPDEST SWAP4 POP SWAP4 POP POP PUSH1 0x20 PUSH2 0xAFE DUP7 DUP3 DUP8 ADD PUSH2 0xA97 JUMP JUMPDEST SWAP2 POP POP SWAP3 POP SWAP3 POP SWAP3 JUMP JUMPDEST PUSH0 PUSH1 0x20 DUP3 DUP5 SUB SLT ISZERO PUSH2 0xB1D JUMPI PUSH2 0xB1C PUSH2 0xA18 JUMP JUMPDEST JUMPDEST PUSH0 PUSH2 0xB2A DUP5 DUP3 DUP6 ADD PUSH2 0xA97 JUMP JUMPDEST SWAP2 POP POP SWAP3 SWAP2 POP POP JUMP JUMPDEST PUSH0 DUP1 PUSH0 PUSH1 0x40 DUP5 DUP7 SUB SLT ISZERO PUSH2 0xB4A JUMPI PUSH2 0xB49 PUSH2 0xA18 JUMP JUMPDEST JUMPDEST PUSH0 PUSH2 0xB57 DUP7 DUP3 DUP8 ADD PUSH2 0xA97 JUMP JUMPDEST SWAP4 POP POP PUSH1 0x20 DUP5 ADD CALLDATALOAD PUSH8 0xFFFFFFFFFFFFFFFF DUP2 GT ISZERO PUSH2 0xB78 JUMPI PUSH2 0xB77 PUSH2 0xA1C JUMP JUMPDEST JUMPDEST PUSH2 0xB84 DUP7 DUP3 DUP8 ADD PUSH2 0xA2C JUMP JUMPDEST SWAP3 POP SWAP3 POP POP SWAP3 POP SWAP3 POP SWAP3 JUMP JUMPDEST PUSH32 0x4E487B7100000000000000000000000000000000000000000000000000000000 PUSH0 MSTORE PUSH1 0x22 PUSH1 0x4 MSTORE PUSH1 0x24 PUSH0 REVERT JUMPDEST PUSH0 PUSH1 0x2 DUP3 DIV SWAP1 POP PUSH1 0x1 DUP3 AND DUP1 PUSH2 0xBD4 JUMPI PUSH1 0x7F DUP3 AND SWAP2 POP JUMPDEST PUSH1 0x20 DUP3 LT DUP2 SUB PUSH2 0xBE7 JUMPI PUSH2 0xBE6 PUSH2 0xB90 JUMP JUMPDEST JUMPDEST POP SWAP2 SWAP1 POP JUMP JUMPDEST PUSH32 0x4E487B7100000000000000000000000000000000000000000000000000000000 PUSH0 MSTORE PUSH1 0x11 PUSH1 0x4 MSTORE PUSH1 0x24 PUSH0 REVERT JUMPDEST PUSH0 PUSH2 0xC24 DUP3 PUSH2 0x901 JUMP JUMPDEST SWAP2 POP PUSH2 0xC2F DUP4 PUSH2 0x901 JUMP JUMPDEST SWAP3 POP DUP3 DUP3 SUB SWAP1 POP DUP2 DUP2 GT ISZERO PUSH2 0xC47 JUMPI PUSH2 0xC46 PUSH2 0xBED JUMP JUMPDEST JUMPDEST SWAP3 SWAP2 POP POP JUMP JUMPDEST PUSH0 PUSH2 0xC57 DUP3 PUSH2 0x901 JUMP JUMPDEST SWAP2 POP PUSH2 0xC62 DUP4 PUSH2 0x901 JUMP JUMPDEST SWAP3 POP DUP3 DUP3 ADD SWAP1 POP DUP1 DUP3 GT ISZERO PUSH2 0xC7A JUMPI PUSH2 0xC79 PUSH2 0xBED JUMP JUMPDEST JUMPDEST SWAP3 SWAP2 POP POP JUMP JUMPDEST PUSH32 0x4E487B7100000000000000000000000000000000000000000000000000000000 PUSH0 MSTORE PUSH1 0x32 PUSH1 0x4 MSTORE PUSH1 0x24 PUSH0 REVERT JUMPDEST PUSH0 DUP2 SLOAD SWAP1 POP PUSH2 0xCBB DUP2 PUSH2 0xBBD JUMP JUMPDEST SWAP1 POP SWAP2 SWAP1 POP JUMP JUMPDEST PUSH32 0x4E487B7100000000000000000000000000000000000000000000000000000000 PUSH0 MSTORE PUSH1 0x41 PUSH1 0x4 MSTORE PUSH1 0x24 PUSH0 REVERT JUMPDEST PUSH0 DUP2 SWAP1 POP DUP2 PUSH0 MSTORE PUSH1 0x20 PUSH0 KECCAK256 SWAP1 POP SWAP2 SWAP1 POP JUMP JUMPDEST PUSH0 PUSH1 0x20 PUSH1 0x1F DUP4 ADD DIV SWAP1 POP SWAP2 SWAP1 POP JUMP JUMPDEST PUSH0 DUP3 DUP3 SHL SWAP1 POP SWAP3 SWAP2 POP POP JUMP JUMPDEST PUSH0 PUSH1 0x8 DUP4 MUL PUSH2 0xD4B PUSH32 0xFFFFFFFFFFFFFFFFFFFFFFFFFFFFFFFFFFFFFFFFFFFFFFFFFFFFFFFFFFFFFFFF DUP3 PUSH2 0xD10 JUMP JUMPDEST PUSH2 0xD55 DUP7 DUP4 PUSH2 0xD10 JUMP JUMPDEST SWAP6 POP DUP1 NOT DUP5 AND SWAP4 POP DUP1 DUP7 AND DUP5 OR SWAP3 POP POP POP SWAP4 SWAP3 POP POP POP JUMP JUMPDEST PUSH0 DUP2 SWAP1 POP SWAP2 SWAP1 POP JUMP JUMPDEST PUSH0 PUSH2 0xD90 PUSH2 0xD8B PUSH2 0xD86 DUP5 PUSH2 0x901 JUMP JUMPDEST PUSH2 0xD6D JUMP JUMPDEST PUSH2 0x901 JUMP JUMPDEST SWAP1 POP SWAP2 SWAP1 POP JUMP JUMPDEST PUSH0 DUP2 SWAP1 POP SWAP2 SWAP1 POP JUMP JUMPDEST PUSH2 0xDA9 DUP4 PUSH2 0xD76 JUMP JUMPDEST PUSH2 0xDBD PUSH2 0xDB5 DUP3 PUSH2 0xD97 JUMP JUMPDEST DUP5 DUP5 SLOAD PUSH2 0xD1C JUMP JUMPDEST DUP3 SSTORE POP POP POP POP JUMP JUMPDEST PUSH0 SWAP1 JUMP JUMPDEST PUSH2 0xDD1 PUSH2 0xDC5 JUMP JUMPDEST PUSH2 0xDDC DUP2 DUP5 DUP5 PUSH2 0xDA0 JUMP JUMPDEST POP POP POP JUMP JUMPDEST JUMPDEST DUP2 DUP2 LT ISZERO PUSH2 0xDFF JUMPI PUSH2 0xDF4 PUSH0 DUP3 PUSH2 0xDC9 JUMP JUMPDEST PUSH1 0x1 DUP2 ADD SWAP1 POP PUSH2 0xDE2 JUMP JUMPDEST POP POP JUMP JUMPDEST PUSH1 0x1F DUP3 GT ISZERO PUSH2 0xE44 JUMPI PUSH2 0xE15 DUP2 PUSH2 0xCEF JUMP JUMPDEST PUSH2 0xE1E DUP5 PUSH2 0xD01 JUMP JUMPDEST DUP2 ADD PUSH1 0x20 DUP6 LT ISZERO PUSH2 0xE2D JUMPI DUP2 SWAP1 POP JUMPDEST PUSH2 0xE41 PUSH2 0xE39 DUP6 PUSH2 0xD01 JUMP JUMPDEST DUP4 ADD DUP3 PUSH2 0xDE1 JUMP JUMPDEST POP POP JUMPDEST POP POP POP JUMP JUMPDEST PUSH0 DUP3 DUP3 SHR SWAP1 POP SWAP3 SWAP2 POP POP JUMP JUMPDEST PUSH0 PUSH2 0xE64 PUSH0 NOT DUP5 PUSH1 0x8 MUL PUSH2 0xE49 JUMP JUMPDEST NOT DUP1 DUP4 AND SWAP2 POP POP SWAP3 SWAP2 POP POP JUMP JUMPDEST PUSH0 PUSH2 0xE7C DUP4 DUP4 PUSH2 0xE55 JUMP JUMPDEST SWAP2 POP DUP3 PUSH1 0x2 MUL DUP3 OR SWAP1 POP SWAP3 SWAP2 POP POP JUMP JUMPDEST DUP2 DUP2 SUB PUSH2 0xE9A JUMPI POP POP PUSH2 0xF6F JUMP JUMPDEST PUSH2 0xEA3 DUP3 PUSH2 0xCAD JUMP JUMPDEST PUSH8 0xFFFFFFFFFFFFFFFF DUP2 GT ISZERO PUSH2 0xEBC JUMPI PUSH2 0xEBB PUSH2 0xCC2 JUMP JUMPDEST JUMPDEST PUSH2 0xEC6 DUP3 SLOAD PUSH2 0xBBD JUMP JUMPDEST PUSH2 0xED1 DUP3 DUP3 DUP6 PUSH2 0xE03 JUMP JUMPDEST PUSH0 PUSH1 0x1F DUP4 GT PUSH1 0x1 DUP2 EQ PUSH2 0xEFE JUMPI PUSH0 DUP5 ISZERO PUSH2 0xEEC JUMPI DUP3 DUP8 ADD SLOAD SWAP1 POP JUMPDEST PUSH2 0xEF6 DUP6 DUP3 PUSH2 0xE71 JUMP JUMPDEST DUP7 SSTORE POP PUSH2 0xF68 JUMP JUMPDEST PUSH1 0x1F NOT DUP5 AND PUSH2 0xF0C DUP8 PUSH2 0xCEF JUMP JUMPDEST SWAP7 POP PUSH2 0xF17 DUP7 PUSH2 0xCEF JUMP JUMPDEST PUSH0 JUMPDEST DUP3 DUP2 LT ISZERO PUSH2 0xF3E JUMPI DUP5 DUP10 ADD SLOAD DUP3 SSTORE PUSH1 0x1 DUP3 ADD SWAP2 POP PUSH1 0x1 DUP6 ADD SWAP5 POP PUSH1 0x20 DUP2 ADD SWAP1 POP PUSH2 0xF19 JUMP JUMPDEST DUP7 DUP4 LT ISZERO PUSH2 0xF5B JUMPI DUP5 DUP10 ADD SLOAD PUSH2 0xF57 PUSH1 0x1F DUP10 AND DUP3 PUSH2 0xE55 JUMP JUMPDEST DUP4 SSTORE POP JUMPDEST PUSH1 0x1 PUSH1 0x2 DUP9 MUL ADD DUP9 SSTORE POP POP POP JUMPDEST POP POP POP POP POP POP JUMPDEST JUMP JUMPDEST PUSH2 0xF7A DUP3 PUSH2 0x877 JUMP JUMPDEST PUSH8 0xFFFFFFFFFFFFFFFF DUP2 GT ISZERO PUSH2 0xF93 JUMPI PUSH2 0xF92 PUSH2 0xCC2 JUMP JUMPDEST JUMPDEST PUSH2 0xF9D DUP3 SLOAD PUSH2 0xBBD JUMP JUMPDEST PUSH2 0xFA8 DUP3 DUP3 DUP6 PUSH2 0xE03 JUMP JUMPDEST PUSH0 PUSH1 0x20 SWAP1 POP PUSH1 0x1F DUP4 GT PUSH1 0x1 DUP2 EQ PUSH2 0xFD9 JUMPI PUSH0 DUP5 ISZERO PUSH2 0xFC7 JUMPI DUP3 DUP8 ADD MLOAD SWAP1 POP JUMPDEST PUSH2 0xFD1 DUP6 DUP3 PUSH2 0xE71 JUMP JUMPDEST DUP7 SSTORE POP PUSH2 0x1038 JUMP JUMPDEST PUSH1 0x1F NOT DUP5 AND PUSH2 0xFE7 DUP7 PUSH2 0xCEF JUMP JUMPDEST PUSH0 JUMPDEST DUP3 DUP2 LT ISZERO PUSH2 0x100E JUMPI DUP5 DUP10 ADD MLOAD DUP3 SSTORE PUSH1 0x1 DUP3 ADD SWAP2 POP PUSH1 0x20 DUP6 ADD SWAP5 POP PUSH1 0x20 DUP2 ADD SWAP1 POP PUSH2 0xFE9 JUMP JUMPDEST DUP7 DUP4 LT ISZERO PUSH2 0x102B JUMPI DUP5 DUP10 ADD MLOAD PUSH2 0x1027 PUSH1 0x1F DUP10 AND DUP3 PUSH2 0xE55 JUMP JUMPDEST DUP4 SSTORE POP JUMPDEST PUSH1 0x1 PUSH1 0x2 DUP9 MUL ADD DUP9 SSTORE POP POP POP JUMPDEST POP POP POP POP POP POP JUMP JUMPDEST PUSH0 DUP3 DUP3 MSTORE PUSH1 0x20 DUP3 ADD SWAP1 POP SWAP3 SWAP2 POP POP JUMP JUMPDEST PUSH32 0x496E76616C6964207072696F726974792E204974206D75737420626520626574 PUSH0 DUP3 ADD MSTORE PUSH32 0x7765656E203120616E6420332E00000000000000000000000000000000000000 PUSH1 0x20 DUP3 ADD MSTORE POP JUMP JUMPDEST PUSH0 PUSH2 0x10AA PUSH1 0x2D DUP4 PUSH2 0x1040 JUMP JUMPDEST SWAP2 POP PUSH2 0x10B5 DUP3 PUSH2 0x1050 JUMP JUMPDEST PUSH1 0x40 DUP3 ADD SWAP1 POP SWAP2 SWAP1 POP JUMP JUMPDEST PUSH0 PUSH1 0x20 DUP3 ADD SWAP1 POP DUP2 DUP2 SUB PUSH0 DUP4 ADD MSTORE PUSH2 0x10D7 DUP2 PUSH2 0x109E JUMP JUMPDEST SWAP1 POP SWAP2 SWAP1 POP JUMP JUMPDEST PUSH32 0x4E487B7100000000000000000000000000000000000000000000000000000000 PUSH0 MSTORE PUSH1 0x31 PUSH1 0x4 MSTORE PUSH1 0x24 PUSH0 REVERT JUMPDEST PUSH32 0x5461736B20646F6573206E6F742065786973742E000000000000000000000000 PUSH0 DUP3 ADD MSTORE POP JUMP JUMPDEST PUSH0 PUSH2 0x113F PUSH1 0x14 DUP4 PUSH2 0x1040 JUMP JUMPDEST SWAP2 POP PUSH2 0x114A DUP3 PUSH2 0x110B JUMP JUMPDEST PUSH1 0x20 DUP3 ADD SWAP1 POP SWAP2 SWAP1 POP JUMP JUMPDEST PUSH0 PUSH1 0x20 DUP3 ADD SWAP1 POP DUP2 DUP2 SUB PUSH0 DUP4 ADD MSTORE PUSH2 0x116C DUP2 PUSH2 0x1133 JUMP JUMPDEST SWAP1 POP SWAP2 SWAP1 POP JUMP JUMPDEST PUSH0 DUP3 SWAP1 POP SWAP3 SWAP2 POP POP JUMP JUMPDEST PUSH2 0x1187 DUP4 DUP4 PUSH2 0x1173 JUMP JUMPDEST PUSH8 0xFFFFFFFFFFFFFFFF DUP2 GT ISZERO PUSH2 0x11A0 JUMPI PUSH2 0x119F PUSH2 0xCC2 JUMP JUMPDEST JUMPDEST PUSH2 0x11AA DUP3 SLOAD PUSH2 0xBBD JUMP JUMPDEST PUSH2 0x11B5 DUP3 DUP3 DUP6 PUSH2 0xE03 JUMP JUMPDEST PUSH0 PUSH1 0x1F DUP4 GT PUSH1 0x1 DUP2 EQ PUSH2 0x11E2 JUMPI PUSH0 DUP5 ISZERO PUSH2 0x11D0 JUMPI DUP3 DUP8 ADD CALLDATALOAD SWAP1 POP JUMPDEST PUSH2 0x11DA DUP6 DUP3 PUSH2 0xE71 JUMP JUMPDEST DUP7 SSTORE POP PUSH2 0x1241 JUMP JUMPDEST PUSH1 0x1F NOT DUP5 AND PUSH2 0x11F0 DUP7 PUSH2 0xCEF JUMP JUMPDEST PUSH0 JUMPDEST DUP3 DUP2 LT ISZERO PUSH2 0x1217 JUMPI DUP5 DUP10 ADD CALLDATALOAD DUP3 SSTORE PUSH1 0x1 DUP3 ADD SWAP2 POP PUSH1 0x20 DUP6 ADD SWAP5 POP PUSH1 0x20 DUP2 ADD SWAP1 POP PUSH2 0x11F2 JUMP JUMPDEST DUP7 DUP4 LT ISZERO PUSH2 0x1234 JUMPI DUP5 DUP10 ADD CALLDATALOAD PUSH2 0x1230 PUSH1 0x1F DUP10 AND DUP3 PUSH2 0xE55 JUMP JUMPDEST DUP4 SSTORE POP JUMPDEST PUSH1 0x1 PUSH1 0x2 DUP9 MUL ADD DUP9 SSTORE POP POP POP JUMPDEST POP POP POP POP POP POP POP JUMP INVALID LOG2 PUSH5 0x6970667358 0x22 SLT KECCAK256 MSIZE PUSH11 0x73E84F45123E25EBB90F8F DUP14 BLOBHASH ADDMOD PUSH11 0x52D760BECAE739B2BFAE5F 0xD4 DUP7 CHAINID SWAP1 PUSH5 0x736F6C6343 STOP ADDMOD BYTE STOP CALLER "
				},
				"gasEstimates": {
					"creation": {
						"codeDepositCost": "947200",
						"executionCost": "979",
						"totalCost": "948179"
					},
					"external": {
						"addTask(string,uint256)": "infinite",
						"editTask(uint256,string)": "infinite",
						"getTasks()": "infinite",
						"markTaskDone(uint256)": "29097",
						"removeTask(uint256)": "infinite",
						"sortTasksByPriority()": "infinite"
					},
					"internal": {
						"_taskExists(uint256)": "2172"
					}
				},
				"methodIdentifiers": {
					"addTask(string,uint256)": "3143d082",
					"editTask(uint256,string)": "cb7bd995",
					"getTasks()": "04a87e38",
					"markTaskDone(uint256)": "a91c55f3",
					"removeTask(uint256)": "c3084117",
					"sortTasksByPriority()": "163aa1c2"
				}
			},
			"storageLayout": {
				"storage": [
					{
						"astId": 12,
						"contract": "Task.sol:TodoList",
						"label": "tasks",
						"offset": 0,
						"slot": "0",
						"type": "t_array(t_struct(Task)8_storage)dyn_storage"
					}
				],
				"types": {
					"t_array(t_struct(Task)8_storage)dyn_storage": {
						"base": "t_struct(Task)8_storage",
						"encoding": "dynamic_array",
						"label": "struct TodoList.Task[]",
						"numberOfBytes": "32"
					},
					"t_bool": {
						"encoding": "inplace",
						"label": "bool",
						"numberOfBytes": "1"
					},
					"t_string_storage": {
						"encoding": "bytes",
						"label": "string",
						"numberOfBytes": "32"
					},
					"t_struct(Task)8_storage": {
						"encoding": "inplace",
						"label": "struct TodoList.Task",
						"members": [
							{
								"astId": 3,
								"contract": "Task.sol:TodoList",
								"label": "description",
								"offset": 0,
								"slot": "0",
								"type": "t_string_storage"
							},
							{
								"astId": 5,
								"contract": "Task.sol:TodoList",
								"label": "TaskStatus",
								"offset": 0,
								"slot": "1",
								"type": "t_bool"
							},
							{
								"astId": 7,
								"contract": "Task.sol:TodoList",
								"label": "priority",
								"offset": 0,
								"slot": "2",
								"type": "t_uint256"
							}
						],
						"numberOfBytes": "96"
					},
					"t_uint256": {
						"encoding": "inplace",
						"label": "uint256",
						"numberOfBytes": "32"
					}
				}
			},
			"userdoc": {
				"kind": "user",
				"methods": {},
				"version": 1
			}
		}
	}
}